{
  "_format": "hh-sol-artifact-1",
  "contractName": "NFT",
  "sourceName": "contracts/NFT.sol",
  "abi": [
    {
      "inputs": [],
      "stateMutability": "nonpayable",
      "type": "constructor"
    },
    {
      "anonymous": false,
      "inputs": [
        {
          "indexed": true,
          "internalType": "address",
          "name": "owner",
          "type": "address"
        },
        {
          "indexed": true,
          "internalType": "address",
          "name": "approved",
          "type": "address"
        },
        {
          "indexed": true,
          "internalType": "uint256",
          "name": "tokenId",
          "type": "uint256"
        }
      ],
      "name": "Approval",
      "type": "event"
    },
    {
      "anonymous": false,
      "inputs": [
        {
          "indexed": true,
          "internalType": "address",
          "name": "owner",
          "type": "address"
        },
        {
          "indexed": true,
          "internalType": "address",
          "name": "operator",
          "type": "address"
        },
        {
          "indexed": false,
          "internalType": "bool",
          "name": "approved",
          "type": "bool"
        }
      ],
      "name": "ApprovalForAll",
      "type": "event"
    },
    {
      "anonymous": false,
      "inputs": [
        {
          "indexed": true,
          "internalType": "address",
          "name": "from",
          "type": "address"
        },
        {
          "indexed": true,
          "internalType": "address",
          "name": "to",
          "type": "address"
        },
        {
          "indexed": true,
          "internalType": "uint256",
          "name": "tokenId",
          "type": "uint256"
        }
      ],
      "name": "Transfer",
      "type": "event"
    },
    {
      "inputs": [
        {
          "internalType": "address",
          "name": "to",
          "type": "address"
        },
        {
          "internalType": "uint256",
          "name": "tokenId",
          "type": "uint256"
        }
      ],
      "name": "approve",
      "outputs": [],
      "stateMutability": "nonpayable",
      "type": "function"
    },
    {
      "inputs": [
        {
          "internalType": "address",
          "name": "owner",
          "type": "address"
        }
      ],
      "name": "balanceOf",
      "outputs": [
        {
          "internalType": "uint256",
          "name": "",
          "type": "uint256"
        }
      ],
      "stateMutability": "view",
      "type": "function"
    },
    {
      "inputs": [],
      "name": "getAllTokens",
      "outputs": [
        {
          "components": [
            {
              "internalType": "uint256",
              "name": "tokenId",
              "type": "uint256"
            },
            {
              "internalType": "string",
              "name": "tokenURI",
              "type": "string"
            }
          ],
          "internalType": "struct NFT.Token[]",
          "name": "",
          "type": "tuple[]"
        }
      ],
      "stateMutability": "view",
      "type": "function"
    },
    {
      "inputs": [
        {
          "internalType": "uint256",
          "name": "tokenId",
          "type": "uint256"
        }
      ],
      "name": "getApproved",
      "outputs": [
        {
          "internalType": "address",
          "name": "",
          "type": "address"
        }
      ],
      "stateMutability": "view",
      "type": "function"
    },
    {
      "inputs": [
        {
          "internalType": "address",
          "name": "owner",
          "type": "address"
        }
      ],
      "name": "getOwnerTokens",
      "outputs": [
        {
          "components": [
            {
              "internalType": "uint256",
              "name": "tokenId",
              "type": "uint256"
            },
            {
              "internalType": "string",
              "name": "tokenURI",
              "type": "string"
            }
          ],
          "internalType": "struct NFT.Token[]",
          "name": "",
          "type": "tuple[]"
        }
      ],
      "stateMutability": "view",
      "type": "function"
    },
    {
      "inputs": [
        {
          "internalType": "address",
          "name": "owner",
          "type": "address"
        },
        {
          "internalType": "address",
          "name": "operator",
          "type": "address"
        }
      ],
      "name": "isApprovedForAll",
      "outputs": [
        {
          "internalType": "bool",
          "name": "",
          "type": "bool"
        }
      ],
      "stateMutability": "view",
      "type": "function"
    },
    {
      "inputs": [
        {
          "internalType": "string",
          "name": "_tokenURI",
          "type": "string"
        }
      ],
      "name": "mintToken",
      "outputs": [
        {
          "internalType": "uint256",
          "name": "",
          "type": "uint256"
        }
      ],
      "stateMutability": "nonpayable",
      "type": "function"
    },
    {
      "inputs": [],
      "name": "name",
      "outputs": [
        {
          "internalType": "string",
          "name": "",
          "type": "string"
        }
      ],
      "stateMutability": "view",
      "type": "function"
    },
    {
      "inputs": [
        {
          "internalType": "uint256",
          "name": "tokenId",
          "type": "uint256"
        }
      ],
      "name": "ownerOf",
      "outputs": [
        {
          "internalType": "address",
          "name": "",
          "type": "address"
        }
      ],
      "stateMutability": "view",
      "type": "function"
    },
    {
      "inputs": [
        {
          "internalType": "address",
          "name": "from",
          "type": "address"
        },
        {
          "internalType": "address",
          "name": "to",
          "type": "address"
        },
        {
          "internalType": "uint256",
          "name": "tokenId",
          "type": "uint256"
        }
      ],
      "name": "safeTransferFrom",
      "outputs": [],
      "stateMutability": "nonpayable",
      "type": "function"
    },
    {
      "inputs": [
        {
          "internalType": "address",
          "name": "from",
          "type": "address"
        },
        {
          "internalType": "address",
          "name": "to",
          "type": "address"
        },
        {
          "internalType": "uint256",
          "name": "tokenId",
          "type": "uint256"
        },
        {
          "internalType": "bytes",
          "name": "_data",
          "type": "bytes"
        }
      ],
      "name": "safeTransferFrom",
      "outputs": [],
      "stateMutability": "nonpayable",
      "type": "function"
    },
    {
      "inputs": [
        {
          "internalType": "address",
          "name": "operator",
          "type": "address"
        },
        {
          "internalType": "bool",
          "name": "approved",
          "type": "bool"
        }
      ],
      "name": "setApprovalForAll",
      "outputs": [],
      "stateMutability": "nonpayable",
      "type": "function"
    },
    {
      "inputs": [
        {
          "internalType": "bytes4",
          "name": "interfaceId",
          "type": "bytes4"
        }
      ],
      "name": "supportsInterface",
      "outputs": [
        {
          "internalType": "bool",
          "name": "",
          "type": "bool"
        }
      ],
      "stateMutability": "view",
      "type": "function"
    },
    {
      "inputs": [],
      "name": "symbol",
      "outputs": [
        {
          "internalType": "string",
          "name": "",
          "type": "string"
        }
      ],
      "stateMutability": "view",
      "type": "function"
    },
    {
      "inputs": [
        {
          "internalType": "uint256",
          "name": "index",
          "type": "uint256"
        }
      ],
      "name": "tokenByIndex",
      "outputs": [
        {
          "internalType": "uint256",
          "name": "",
          "type": "uint256"
        }
      ],
      "stateMutability": "view",
      "type": "function"
    },
    {
      "inputs": [
        {
          "internalType": "address",
          "name": "owner",
          "type": "address"
        },
        {
          "internalType": "uint256",
          "name": "index",
          "type": "uint256"
        }
      ],
      "name": "tokenOfOwnerByIndex",
      "outputs": [
        {
          "internalType": "uint256",
          "name": "",
          "type": "uint256"
        }
      ],
      "stateMutability": "view",
      "type": "function"
    },
    {
      "inputs": [
        {
          "internalType": "uint256",
          "name": "tokenId",
          "type": "uint256"
        }
      ],
      "name": "tokenURI",
      "outputs": [
        {
          "internalType": "string",
          "name": "",
          "type": "string"
        }
      ],
      "stateMutability": "view",
      "type": "function"
    },
    {
      "inputs": [],
      "name": "totalSupply",
      "outputs": [
        {
          "internalType": "uint256",
          "name": "",
          "type": "uint256"
        }
      ],
      "stateMutability": "view",
      "type": "function"
    },
    {
      "inputs": [
        {
          "internalType": "address",
          "name": "from",
          "type": "address"
        },
        {
          "internalType": "address",
          "name": "to",
          "type": "address"
        },
        {
          "internalType": "uint256",
          "name": "tokenId",
          "type": "uint256"
        }
      ],
      "name": "transferFrom",
      "outputs": [],
      "stateMutability": "nonpayable",
      "type": "function"
    }
  ],
  "bytecode": "0x60806040523480156200001157600080fd5b506040518060400160405280600781526020017f4d79546f6b656e000000000000000000000000000000000000000000000000008152506040518060400160405280600381526020017f4d544b0000000000000000000000000000000000000000000000000000000000815250816000908051906020019062000096929190620000b8565b508060019080519060200190620000af929190620000b8565b505050620001cd565b828054620000c69062000168565b90600052602060002090601f016020900481019282620000ea576000855562000136565b82601f106200010557805160ff191683800117855562000136565b8280016001018555821562000136579182015b828111156200013557825182559160200191906001019062000118565b5b50905062000145919062000149565b5090565b5b80821115620001645760008160009055506001016200014a565b5090565b600060028204905060018216806200018157607f821691505b602082108114156200019857620001976200019e565b5b50919050565b7f4e487b7100000000000000000000000000000000000000000000000000000000600052602260045260246000fd5b61381880620001dd6000396000f3fe608060405234801561001057600080fd5b50600436106101215760003560e01c806342842e0e116100ad578063a22cb46511610071578063a22cb46514610342578063b88d4fde1461035e578063c87b56dd1461037a578063d63d4af0146103aa578063e985e9c5146103da57610121565b806342842e0e146102785780634f6ccce7146102945780636352211e146102c457806370a08231146102f457806395d89b411461032457610121565b806318160ddd116100f457806318160ddd146101c057806323b872dd146101de5780632a5c792a146101fa5780632f745c591461021857806333eba49a1461024857610121565b806301ffc9a71461012657806306fdde0314610156578063081812fc14610174578063095ea7b3146101a4575b600080fd5b610140600480360381019061013b91906125e6565b61040a565b60405161014d9190612ba3565b60405180910390f35b61015e61041c565b60405161016b9190612bbe565b60405180910390f35b61018e60048036038101906101899190612679565b6104ae565b60405161019b9190612b1a565b60405180910390f35b6101be60048036038101906101b991906125aa565b610533565b005b6101c861064b565b6040516101d59190612e20565b60405180910390f35b6101f860048036038101906101f391906124a4565b610658565b005b6102026106b8565b60405161020f9190612b81565b60405180910390f35b610232600480360381019061022d91906125aa565b6107e0565b60405161023f9190612e20565b60405180910390f35b610262600480360381019061025d9190612638565b610885565b60405161026f9190612e20565b60405180910390f35b610292600480360381019061028d91906124a4565b6108bc565b005b6102ae60048036038101906102a99190612679565b6108dc565b6040516102bb9190612e20565b60405180910390f35b6102de60048036038101906102d99190612679565b610973565b6040516102eb9190612b1a565b60405180910390f35b61030e6004803603810190610309919061243f565b610a25565b60405161031b9190612e20565b60405180910390f35b61032c610add565b6040516103399190612bbe565b60405180910390f35b61035c6004803603810190610357919061256e565b610b6f565b005b610378600480360381019061037391906124f3565b610b85565b005b610394600480360381019061038f9190612679565b610be7565b6040516103a19190612bbe565b60405180910390f35b6103c460048036038101906103bf919061243f565b610bf9565b6040516103d19190612b81565b60405180910390f35b6103f460048036038101906103ef9190612468565b610d25565b6040516104019190612ba3565b60405180910390f35b600061041582610db9565b9050919050565b60606000805461042b906130c0565b80601f0160208091040260200160405190810160405280929190818152602001828054610457906130c0565b80156104a45780601f10610479576101008083540402835291602001916104a4565b820191906000526020600020905b81548152906001019060200180831161048757829003601f168201915b5050505050905090565b60006104b982610e33565b6104f8576040517f08c379a00000000000000000000000000000000000000000000000000000000081526004016104ef90612d80565b60405180910390fd5b6004600083815260200190815260200160002060009054906101000a900473ffffffffffffffffffffffffffffffffffffffff169050919050565b600061053e82610973565b90508073ffffffffffffffffffffffffffffffffffffffff168373ffffffffffffffffffffffffffffffffffffffff1614156105af576040517f08c379a00000000000000000000000000000000000000000000000000000000081526004016105a690612dc0565b60405180910390fd5b8073ffffffffffffffffffffffffffffffffffffffff166105ce610e9f565b73ffffffffffffffffffffffffffffffffffffffff1614806105fd57506105fc816105f7610e9f565b610d25565b5b61063c576040517f08c379a000000000000000000000000000000000000000000000000000000000815260040161063390612cc0565b60405180910390fd5b6106468383610ea7565b505050565b6000600880549050905090565b610669610663610e9f565b82610f60565b6106a8576040517f08c379a000000000000000000000000000000000000000000000000000000000815260040161069f90612de0565b60405180910390fd5b6106b383838361103e565b505050565b606060006106c461064b565b905060008167ffffffffffffffff811115610708577f4e487b7100000000000000000000000000000000000000000000000000000000600052604160045260246000fd5b60405190808252806020026020018201604052801561074157816020015b61072e612249565b8152602001906001900390816107265790505b50905060005b828110156107d757600061075a826108dc565b9050600061076782610be7565b90506040518060400160405280838152602001828152508484815181106107b7577f4e487b7100000000000000000000000000000000000000000000000000000000600052603260045260246000fd5b6020026020010181905250505080806107cf90613123565b915050610747565b50809250505090565b60006107eb83610a25565b821061082c576040517f08c379a000000000000000000000000000000000000000000000000000000000815260040161082390612be0565b60405180910390fd5b600660008473ffffffffffffffffffffffffffffffffffffffff1673ffffffffffffffffffffffffffffffffffffffff168152602001908152602001600020600083815260200190815260200160002054905092915050565b6000610891600b6112a5565b600061089d600b6112bb565b90506108a933826112c9565b6108b381846114a3565b80915050919050565b6108d783838360405180602001604052806000815250610b85565b505050565b60006108e661064b565b8210610927576040517f08c379a000000000000000000000000000000000000000000000000000000000815260040161091e90612e00565b60405180910390fd5b60088281548110610961577f4e487b7100000000000000000000000000000000000000000000000000000000600052603260045260246000fd5b90600052602060002001549050919050565b6000806002600084815260200190815260200160002060009054906101000a900473ffffffffffffffffffffffffffffffffffffffff169050600073ffffffffffffffffffffffffffffffffffffffff168173ffffffffffffffffffffffffffffffffffffffff161415610a1c576040517f08c379a0000000000000000000000000000000000000000000000000000000008152600401610a1390612d00565b60405180910390fd5b80915050919050565b60008073ffffffffffffffffffffffffffffffffffffffff168273ffffffffffffffffffffffffffffffffffffffff161415610a96576040517f08c379a0000000000000000000000000000000000000000000000000000000008152600401610a8d90612ce0565b60405180910390fd5b600360008373ffffffffffffffffffffffffffffffffffffffff1673ffffffffffffffffffffffffffffffffffffffff168152602001908152602001600020549050919050565b606060018054610aec906130c0565b80601f0160208091040260200160405190810160405280929190818152602001828054610b18906130c0565b8015610b655780601f10610b3a57610100808354040283529160200191610b65565b820191906000526020600020905b815481529060010190602001808311610b4857829003601f168201915b5050505050905090565b610b81610b7a610e9f565b8383611517565b5050565b610b96610b90610e9f565b83610f60565b610bd5576040517f08c379a0000000000000000000000000000000000000000000000000000000008152600401610bcc90612de0565b60405180910390fd5b610be184848484611684565b50505050565b6060610bf2826116e0565b9050919050565b60606000610c0683610a25565b905060008167ffffffffffffffff811115610c4a577f4e487b7100000000000000000000000000000000000000000000000000000000600052604160045260246000fd5b604051908082528060200260200182016040528015610c8357816020015b610c70612249565b815260200190600190039081610c685790505b50905060005b82811015610d1a576000610c9d86836107e0565b90506000610caa82610be7565b9050604051806040016040528083815260200182815250848481518110610cfa577f4e487b7100000000000000000000000000000000000000000000000000000000600052603260045260246000fd5b602002602001018190525050508080610d1290613123565b915050610c89565b508092505050919050565b6000600560008473ffffffffffffffffffffffffffffffffffffffff1673ffffffffffffffffffffffffffffffffffffffff16815260200190815260200160002060008373ffffffffffffffffffffffffffffffffffffffff1673ffffffffffffffffffffffffffffffffffffffff16815260200190815260200160002060009054906101000a900460ff16905092915050565b60007f780e9d63000000000000000000000000000000000000000000000000000000007bffffffffffffffffffffffffffffffffffffffffffffffffffffffff1916827bffffffffffffffffffffffffffffffffffffffffffffffffffffffff19161480610e2c5750610e2b82611832565b5b9050919050565b60008073ffffffffffffffffffffffffffffffffffffffff166002600084815260200190815260200160002060009054906101000a900473ffffffffffffffffffffffffffffffffffffffff1673ffffffffffffffffffffffffffffffffffffffff1614159050919050565b600033905090565b816004600083815260200190815260200160002060006101000a81548173ffffffffffffffffffffffffffffffffffffffff021916908373ffffffffffffffffffffffffffffffffffffffff160217905550808273ffffffffffffffffffffffffffffffffffffffff16610f1a83610973565b73ffffffffffffffffffffffffffffffffffffffff167f8c5be1e5ebec7d5bd14f71427d1e84f3dd0314c0f7b2291e5b200ac8c7c3b92560405160405180910390a45050565b6000610f6b82610e33565b610faa576040517f08c379a0000000000000000000000000000000000000000000000000000000008152600401610fa190612ca0565b60405180910390fd5b6000610fb583610973565b90508073ffffffffffffffffffffffffffffffffffffffff168473ffffffffffffffffffffffffffffffffffffffff161480610ff75750610ff68185610d25565b5b8061103557508373ffffffffffffffffffffffffffffffffffffffff1661101d846104ae565b73ffffffffffffffffffffffffffffffffffffffff16145b91505092915050565b8273ffffffffffffffffffffffffffffffffffffffff1661105e82610973565b73ffffffffffffffffffffffffffffffffffffffff16146110b4576040517f08c379a00000000000000000000000000000000000000000000000000000000081526004016110ab90612c20565b60405180910390fd5b600073ffffffffffffffffffffffffffffffffffffffff168273ffffffffffffffffffffffffffffffffffffffff161415611124576040517f08c379a000000000000000000000000000000000000000000000000000000000815260040161111b90612c60565b60405180910390fd5b61112f838383611914565b61113a600082610ea7565b6001600360008573ffffffffffffffffffffffffffffffffffffffff1673ffffffffffffffffffffffffffffffffffffffff168152602001908152602001600020600082825461118a9190612fd6565b925050819055506001600360008473ffffffffffffffffffffffffffffffffffffffff1673ffffffffffffffffffffffffffffffffffffffff16815260200190815260200160002060008282546111e19190612f4f565b92505081905550816002600083815260200190815260200160002060006101000a81548173ffffffffffffffffffffffffffffffffffffffff021916908373ffffffffffffffffffffffffffffffffffffffff160217905550808273ffffffffffffffffffffffffffffffffffffffff168473ffffffffffffffffffffffffffffffffffffffff167fddf252ad1be2c89b69c2b068fc378daa952ba7f163c4a11628f55a4df523b3ef60405160405180910390a46112a0838383611924565b505050565b6001816000016000828254019250508190555050565b600081600001549050919050565b600073ffffffffffffffffffffffffffffffffffffffff168273ffffffffffffffffffffffffffffffffffffffff161415611339576040517f08c379a000000000000000000000000000000000000000000000000000000000815260040161133090612d40565b60405180910390fd5b61134281610e33565b15611382576040517f08c379a000000000000000000000000000000000000000000000000000000000815260040161137990612c40565b60405180910390fd5b61138e60008383611914565b6001600360008473ffffffffffffffffffffffffffffffffffffffff1673ffffffffffffffffffffffffffffffffffffffff16815260200190815260200160002060008282546113de9190612f4f565b92505081905550816002600083815260200190815260200160002060006101000a81548173ffffffffffffffffffffffffffffffffffffffff021916908373ffffffffffffffffffffffffffffffffffffffff160217905550808273ffffffffffffffffffffffffffffffffffffffff16600073ffffffffffffffffffffffffffffffffffffffff167fddf252ad1be2c89b69c2b068fc378daa952ba7f163c4a11628f55a4df523b3ef60405160405180910390a461149f60008383611924565b5050565b6114ac82610e33565b6114eb576040517f08c379a00000000000000000000000000000000000000000000000000000000081526004016114e290612d20565b60405180910390fd5b80600a60008481526020019081526020016000209080519060200190611512929190612263565b505050565b8173ffffffffffffffffffffffffffffffffffffffff168373ffffffffffffffffffffffffffffffffffffffff161415611586576040517f08c379a000000000000000000000000000000000000000000000000000000000815260040161157d90612c80565b60405180910390fd5b80600560008573ffffffffffffffffffffffffffffffffffffffff1673ffffffffffffffffffffffffffffffffffffffff16815260200190815260200160002060008473ffffffffffffffffffffffffffffffffffffffff1673ffffffffffffffffffffffffffffffffffffffff16815260200190815260200160002060006101000a81548160ff0219169083151502179055508173ffffffffffffffffffffffffffffffffffffffff168373ffffffffffffffffffffffffffffffffffffffff167f17307eab39ab6107e8899845ad3d59bd9653f200f220920489ca2b5937696c31836040516116779190612ba3565b60405180910390a3505050565b61168f84848461103e565b61169b84848484611929565b6116da576040517f08c379a00000000000000000000000000000000000000000000000000000000081526004016116d190612c00565b60405180910390fd5b50505050565b60606116eb82610e33565b61172a576040517f08c379a000000000000000000000000000000000000000000000000000000000815260040161172190612d60565b60405180910390fd5b6000600a6000848152602001908152602001600020805461174a906130c0565b80601f0160208091040260200160405190810160405280929190818152602001828054611776906130c0565b80156117c35780601f10611798576101008083540402835291602001916117c3565b820191906000526020600020905b8154815290600101906020018083116117a657829003601f168201915b5050505050905060006117d4611ac0565b90506000815114156117ea57819250505061182d565b60008251111561181f578082604051602001611807929190612af6565b6040516020818303038152906040529250505061182d565b61182884611ad7565b925050505b919050565b60007f80ac58cd000000000000000000000000000000000000000000000000000000007bffffffffffffffffffffffffffffffffffffffffffffffffffffffff1916827bffffffffffffffffffffffffffffffffffffffffffffffffffffffff191614806118fd57507f5b5e139f000000000000000000000000000000000000000000000000000000007bffffffffffffffffffffffffffffffffffffffffffffffffffffffff1916827bffffffffffffffffffffffffffffffffffffffffffffffffffffffff1916145b8061190d575061190c82611b7e565b5b9050919050565b61191f838383611be8565b505050565b505050565b600061194a8473ffffffffffffffffffffffffffffffffffffffff16611cfc565b15611ab3578373ffffffffffffffffffffffffffffffffffffffff1663150b7a02611973610e9f565b8786866040518563ffffffff1660e01b81526004016119959493929190612b35565b602060405180830381600087803b1580156119af57600080fd5b505af19250505080156119e057506040513d601f19601f820116820180604052508101906119dd919061260f565b60015b611a63573d8060008114611a10576040519150601f19603f3d011682016040523d82523d6000602084013e611a15565b606091505b50600081511415611a5b576040517f08c379a0000000000000000000000000000000000000000000000000000000008152600401611a5290612c00565b60405180910390fd5b805181602001fd5b63150b7a0260e01b7bffffffffffffffffffffffffffffffffffffffffffffffffffffffff1916817bffffffffffffffffffffffffffffffffffffffffffffffffffffffff191614915050611ab8565b600190505b949350505050565b606060405180602001604052806000815250905090565b6060611ae282610e33565b611b21576040517f08c379a0000000000000000000000000000000000000000000000000000000008152600401611b1890612da0565b60405180910390fd5b6000611b2b611ac0565b90506000815111611b4b5760405180602001604052806000815250611b76565b80611b5584611d1f565b604051602001611b66929190612af6565b6040516020818303038152906040525b915050919050565b60007f01ffc9a7000000000000000000000000000000000000000000000000000000007bffffffffffffffffffffffffffffffffffffffffffffffffffffffff1916827bffffffffffffffffffffffffffffffffffffffffffffffffffffffff1916149050919050565b611bf3838383611ecc565b600073ffffffffffffffffffffffffffffffffffffffff168373ffffffffffffffffffffffffffffffffffffffff161415611c3657611c3181611ed1565b611c75565b8173ffffffffffffffffffffffffffffffffffffffff168373ffffffffffffffffffffffffffffffffffffffff1614611c7457611c738382611f1a565b5b5b600073ffffffffffffffffffffffffffffffffffffffff168273ffffffffffffffffffffffffffffffffffffffff161415611cb857611cb381612087565b611cf7565b8273ffffffffffffffffffffffffffffffffffffffff168273ffffffffffffffffffffffffffffffffffffffff1614611cf657611cf582826121ca565b5b5b505050565b6000808273ffffffffffffffffffffffffffffffffffffffff163b119050919050565b60606000821415611d67576040518060400160405280600181526020017f30000000000000000000000000000000000000000000000000000000000000008152509050611ec7565b600082905060005b60008214611d99578080611d8290613123565b915050600a82611d929190612fa5565b9150611d6f565b60008167ffffffffffffffff811115611ddb577f4e487b7100000000000000000000000000000000000000000000000000000000600052604160045260246000fd5b6040519080825280601f01601f191660200182016040528015611e0d5781602001600182028036833780820191505090505b5090505b60008514611ec057600182611e269190612fd6565b9150600a85611e35919061316c565b6030611e419190612f4f565b60f81b818381518110611e7d577f4e487b7100000000000000000000000000000000000000000000000000000000600052603260045260246000fd5b60200101907effffffffffffffffffffffffffffffffffffffffffffffffffffffffffffff1916908160001a905350600a85611eb99190612fa5565b9450611e11565b8093505050505b919050565b505050565b6008805490506009600083815260200190815260200160002081905550600881908060018154018082558091505060019003906000526020600020016000909190919091505550565b60006001611f2784610a25565b611f319190612fd6565b9050600060076000848152602001908152602001600020549050818114612016576000600660008673ffffffffffffffffffffffffffffffffffffffff1673ffffffffffffffffffffffffffffffffffffffff168152602001908152602001600020600084815260200190815260200160002054905080600660008773ffffffffffffffffffffffffffffffffffffffff1673ffffffffffffffffffffffffffffffffffffffff168152602001908152602001600020600084815260200190815260200160002081905550816007600083815260200190815260200160002081905550505b6007600084815260200190815260200160002060009055600660008573ffffffffffffffffffffffffffffffffffffffff1673ffffffffffffffffffffffffffffffffffffffff16815260200190815260200160002060008381526020019081526020016000206000905550505050565b6000600160088054905061209b9190612fd6565b90506000600960008481526020019081526020016000205490506000600883815481106120f1577f4e487b7100000000000000000000000000000000000000000000000000000000600052603260045260246000fd5b906000526020600020015490508060088381548110612139577f4e487b7100000000000000000000000000000000000000000000000000000000600052603260045260246000fd5b9060005260206000200181905550816009600083815260200190815260200160002081905550600960008581526020019081526020016000206000905560088054806121ae577f4e487b7100000000000000000000000000000000000000000000000000000000600052603160045260246000fd5b6001900381819060005260206000200160009055905550505050565b60006121d583610a25565b905081600660008573ffffffffffffffffffffffffffffffffffffffff1673ffffffffffffffffffffffffffffffffffffffff168152602001908152602001600020600083815260200190815260200160002081905550806007600084815260200190815260200160002081905550505050565b604051806040016040528060008152602001606081525090565b82805461226f906130c0565b90600052602060002090601f01602090048101928261229157600085556122d8565b82601f106122aa57805160ff19168380011785556122d8565b828001600101855582156122d8579182015b828111156122d75782518255916020019190600101906122bc565b5b5090506122e591906122e9565b5090565b5b808211156123025760008160009055506001016122ea565b5090565b600061231961231484612e60565b612e3b565b90508281526020810184848401111561233157600080fd5b61233c84828561307e565b509392505050565b600061235761235284612e91565b612e3b565b90508281526020810184848401111561236f57600080fd5b61237a84828561307e565b509392505050565b60008135905061239181613786565b92915050565b6000813590506123a68161379d565b92915050565b6000813590506123bb816137b4565b92915050565b6000815190506123d0816137b4565b92915050565b600082601f8301126123e757600080fd5b81356123f7848260208601612306565b91505092915050565b600082601f83011261241157600080fd5b8135612421848260208601612344565b91505092915050565b600081359050612439816137cb565b92915050565b60006020828403121561245157600080fd5b600061245f84828501612382565b91505092915050565b6000806040838503121561247b57600080fd5b600061248985828601612382565b925050602061249a85828601612382565b9150509250929050565b6000806000606084860312156124b957600080fd5b60006124c786828701612382565b93505060206124d886828701612382565b92505060406124e98682870161242a565b9150509250925092565b6000806000806080858703121561250957600080fd5b600061251787828801612382565b945050602061252887828801612382565b93505060406125398782880161242a565b925050606085013567ffffffffffffffff81111561255657600080fd5b612562878288016123d6565b91505092959194509250565b6000806040838503121561258157600080fd5b600061258f85828601612382565b92505060206125a085828601612397565b9150509250929050565b600080604083850312156125bd57600080fd5b60006125cb85828601612382565b92505060206125dc8582860161242a565b9150509250929050565b6000602082840312156125f857600080fd5b6000612606848285016123ac565b91505092915050565b60006020828403121561262157600080fd5b600061262f848285016123c1565b91505092915050565b60006020828403121561264a57600080fd5b600082013567ffffffffffffffff81111561266457600080fd5b61267084828501612400565b91505092915050565b60006020828403121561268b57600080fd5b60006126998482850161242a565b91505092915050565b60006126ae8383612a9b565b905092915050565b6126bf8161300a565b82525050565b60006126d082612ed2565b6126da8185612f00565b9350836020820285016126ec85612ec2565b8060005b85811015612728578484038952815161270985826126a2565b945061271483612ef3565b925060208a019950506001810190506126f0565b50829750879550505050505092915050565b6127438161301c565b82525050565b600061275482612edd565b61275e8185612f11565b935061276e81856020860161308d565b61277781613259565b840191505092915050565b600061278d82612ee8565b6127978185612f22565b93506127a781856020860161308d565b6127b081613259565b840191505092915050565b60006127c682612ee8565b6127d08185612f33565b93506127e081856020860161308d565b6127e981613259565b840191505092915050565b60006127ff82612ee8565b6128098185612f44565b935061281981856020860161308d565b80840191505092915050565b6000612832602b83612f33565b915061283d8261326a565b604082019050919050565b6000612855603283612f33565b9150612860826132b9565b604082019050919050565b6000612878602583612f33565b915061288382613308565b604082019050919050565b600061289b601c83612f33565b91506128a682613357565b602082019050919050565b60006128be602483612f33565b91506128c982613380565b604082019050919050565b60006128e1601983612f33565b91506128ec826133cf565b602082019050919050565b6000612904602c83612f33565b915061290f826133f8565b604082019050919050565b6000612927603883612f33565b915061293282613447565b604082019050919050565b600061294a602a83612f33565b915061295582613496565b604082019050919050565b600061296d602983612f33565b9150612978826134e5565b604082019050919050565b6000612990602e83612f33565b915061299b82613534565b604082019050919050565b60006129b3602083612f33565b91506129be82613583565b602082019050919050565b60006129d6603183612f33565b91506129e1826135ac565b604082019050919050565b60006129f9602c83612f33565b9150612a04826135fb565b604082019050919050565b6000612a1c602f83612f33565b9150612a278261364a565b604082019050919050565b6000612a3f602183612f33565b9150612a4a82613699565b604082019050919050565b6000612a62603183612f33565b9150612a6d826136e8565b604082019050919050565b6000612a85602c83612f33565b9150612a9082613737565b604082019050919050565b6000604083016000830151612ab36000860182612ad8565b5060208301518482036020860152612acb8282612782565b9150508091505092915050565b612ae181613074565b82525050565b612af081613074565b82525050565b6000612b0282856127f4565b9150612b0e82846127f4565b91508190509392505050565b6000602082019050612b2f60008301846126b6565b92915050565b6000608082019050612b4a60008301876126b6565b612b5760208301866126b6565b612b646040830185612ae7565b8181036060830152612b768184612749565b905095945050505050565b60006020820190508181036000830152612b9b81846126c5565b905092915050565b6000602082019050612bb8600083018461273a565b92915050565b60006020820190508181036000830152612bd881846127bb565b905092915050565b60006020820190508181036000830152612bf981612825565b9050919050565b60006020820190508181036000830152612c1981612848565b9050919050565b60006020820190508181036000830152612c398161286b565b9050919050565b60006020820190508181036000830152612c598161288e565b9050919050565b60006020820190508181036000830152612c79816128b1565b9050919050565b60006020820190508181036000830152612c99816128d4565b9050919050565b60006020820190508181036000830152612cb9816128f7565b9050919050565b60006020820190508181036000830152612cd98161291a565b9050919050565b60006020820190508181036000830152612cf98161293d565b9050919050565b60006020820190508181036000830152612d1981612960565b9050919050565b60006020820190508181036000830152612d3981612983565b9050919050565b60006020820190508181036000830152612d59816129a6565b9050919050565b60006020820190508181036000830152612d79816129c9565b9050919050565b60006020820190508181036000830152612d99816129ec565b9050919050565b60006020820190508181036000830152612db981612a0f565b9050919050565b60006020820190508181036000830152612dd981612a32565b9050919050565b60006020820190508181036000830152612df981612a55565b9050919050565b60006020820190508181036000830152612e1981612a78565b9050919050565b6000602082019050612e356000830184612ae7565b92915050565b6000612e45612e56565b9050612e5182826130f2565b919050565b6000604051905090565b600067ffffffffffffffff821115612e7b57612e7a61322a565b5b612e8482613259565b9050602081019050919050565b600067ffffffffffffffff821115612eac57612eab61322a565b5b612eb582613259565b9050602081019050919050565b6000819050602082019050919050565b600081519050919050565b600081519050919050565b600081519050919050565b6000602082019050919050565b600082825260208201905092915050565b600082825260208201905092915050565b600082825260208201905092915050565b600082825260208201905092915050565b600081905092915050565b6000612f5a82613074565b9150612f6583613074565b9250827fffffffffffffffffffffffffffffffffffffffffffffffffffffffffffffffff03821115612f9a57612f9961319d565b5b828201905092915050565b6000612fb082613074565b9150612fbb83613074565b925082612fcb57612fca6131cc565b5b828204905092915050565b6000612fe182613074565b9150612fec83613074565b925082821015612fff57612ffe61319d565b5b828203905092915050565b600061301582613054565b9050919050565b60008115159050919050565b60007fffffffff0000000000000000000000000000000000000000000000000000000082169050919050565b600073ffffffffffffffffffffffffffffffffffffffff82169050919050565b6000819050919050565b82818337600083830152505050565b60005b838110156130ab578082015181840152602081019050613090565b838111156130ba576000848401525b50505050565b600060028204905060018216806130d857607f821691505b602082108114156130ec576130eb6131fb565b5b50919050565b6130fb82613259565b810181811067ffffffffffffffff8211171561311a5761311961322a565b5b80604052505050565b600061312e82613074565b91507fffffffffffffffffffffffffffffffffffffffffffffffffffffffffffffffff8214156131615761316061319d565b5b600182019050919050565b600061317782613074565b915061318283613074565b925082613192576131916131cc565b5b828206905092915050565b7f4e487b7100000000000000000000000000000000000000000000000000000000600052601160045260246000fd5b7f4e487b7100000000000000000000000000000000000000000000000000000000600052601260045260246000fd5b7f4e487b7100000000000000000000000000000000000000000000000000000000600052602260045260246000fd5b7f4e487b7100000000000000000000000000000000000000000000000000000000600052604160045260246000fd5b6000601f19601f8301169050919050565b7f455243373231456e756d657261626c653a206f776e657220696e646578206f7560008201527f74206f6620626f756e6473000000000000000000000000000000000000000000602082015250565b7f4552433732313a207472616e7366657220746f206e6f6e20455243373231526560008201527f63656976657220696d706c656d656e7465720000000000000000000000000000602082015250565b7f4552433732313a207472616e736665722066726f6d20696e636f72726563742060008201527f6f776e6572000000000000000000000000000000000000000000000000000000602082015250565b7f4552433732313a20746f6b656e20616c7265616479206d696e74656400000000600082015250565b7f4552433732313a207472616e7366657220746f20746865207a65726f2061646460008201527f7265737300000000000000000000000000000000000000000000000000000000602082015250565b7f4552433732313a20617070726f766520746f2063616c6c657200000000000000600082015250565b7f4552433732313a206f70657261746f7220717565727920666f72206e6f6e657860008201527f697374656e7420746f6b656e0000000000000000000000000000000000000000602082015250565b7f4552433732313a20617070726f76652063616c6c6572206973206e6f74206f7760008201527f6e6572206e6f7220617070726f76656420666f7220616c6c0000000000000000602082015250565b7f4552433732313a2062616c616e636520717565727920666f7220746865207a6560008201527f726f206164647265737300000000000000000000000000000000000000000000602082015250565b7f4552433732313a206f776e657220717565727920666f72206e6f6e657869737460008201527f656e7420746f6b656e0000000000000000000000000000000000000000000000602082015250565b7f45524337323155524953746f726167653a2055524920736574206f66206e6f6e60008201527f6578697374656e7420746f6b656e000000000000000000000000000000000000602082015250565b7f4552433732313a206d696e7420746f20746865207a65726f2061646472657373600082015250565b7f45524337323155524953746f726167653a2055524920717565727920666f722060008201527f6e6f6e6578697374656e7420746f6b656e000000000000000000000000000000602082015250565b7f4552433732313a20617070726f76656420717565727920666f72206e6f6e657860008201527f697374656e7420746f6b656e0000000000000000000000000000000000000000602082015250565b7f4552433732314d657461646174613a2055524920717565727920666f72206e6f60008201527f6e6578697374656e7420746f6b656e0000000000000000000000000000000000602082015250565b7f4552433732313a20617070726f76616c20746f2063757272656e74206f776e6560008201527f7200000000000000000000000000000000000000000000000000000000000000602082015250565b7f4552433732313a207472616e736665722063616c6c6572206973206e6f74206f60008201527f776e6572206e6f7220617070726f766564000000000000000000000000000000602082015250565b7f455243373231456e756d657261626c653a20676c6f62616c20696e646578206f60008201527f7574206f6620626f756e64730000000000000000000000000000000000000000602082015250565b61378f8161300a565b811461379a57600080fd5b50565b6137a68161301c565b81146137b157600080fd5b50565b6137bd81613028565b81146137c857600080fd5b50565b6137d481613074565b81146137df57600080fd5b5056fea2646970667358221220747b71134dfc2e8c69bb7c338b89c3af1b3428667a74cdafc0a0b3f5f8b9ade364736f6c63430008040033",
  "linkReferences": {},
  "deployedLinkReferences": {}
}