{
  "_format": "hh-sol-artifact-1",
  "contractName": "NFT",
  "sourceName": "contracts/NFT.sol",
  "abi": [
    {
      "inputs": [
        {
          "internalType": "address",
          "name": "marketPlace",
          "type": "address"
        }
      ],
      "stateMutability": "nonpayable",
      "type": "constructor"
    },
    {
      "anonymous": false,
      "inputs": [
        {
          "indexed": true,
          "internalType": "address",
          "name": "owner",
          "type": "address"
        },
        {
          "indexed": true,
          "internalType": "address",
          "name": "approved",
          "type": "address"
        },
        {
          "indexed": true,
          "internalType": "uint256",
          "name": "tokenId",
          "type": "uint256"
        }
      ],
      "name": "Approval",
      "type": "event"
    },
    {
      "anonymous": false,
      "inputs": [
        {
          "indexed": true,
          "internalType": "address",
          "name": "owner",
          "type": "address"
        },
        {
          "indexed": true,
          "internalType": "address",
          "name": "operator",
          "type": "address"
        },
        {
          "indexed": false,
          "internalType": "bool",
          "name": "approved",
          "type": "bool"
        }
      ],
      "name": "ApprovalForAll",
      "type": "event"
    },
    {
      "anonymous": false,
      "inputs": [
        {
          "indexed": true,
          "internalType": "address",
          "name": "from",
          "type": "address"
        },
        {
          "indexed": true,
          "internalType": "address",
          "name": "to",
          "type": "address"
        },
        {
          "indexed": true,
          "internalType": "uint256",
          "name": "tokenId",
          "type": "uint256"
        }
      ],
      "name": "Transfer",
      "type": "event"
    },
    {
      "inputs": [
        {
          "internalType": "address",
          "name": "to",
          "type": "address"
        },
        {
          "internalType": "uint256",
          "name": "tokenId",
          "type": "uint256"
        }
      ],
      "name": "approve",
      "outputs": [],
      "stateMutability": "nonpayable",
      "type": "function"
    },
    {
      "inputs": [
        {
          "internalType": "address",
          "name": "owner",
          "type": "address"
        }
      ],
      "name": "balanceOf",
      "outputs": [
        {
          "internalType": "uint256",
          "name": "",
          "type": "uint256"
        }
      ],
      "stateMutability": "view",
      "type": "function"
    },
    {
      "inputs": [],
      "name": "getAllTokens",
      "outputs": [
        {
          "components": [
            {
              "internalType": "uint256",
              "name": "tokenId",
              "type": "uint256"
            },
            {
              "internalType": "string",
              "name": "tokenURI",
              "type": "string"
            }
          ],
          "internalType": "struct NFT.Token[]",
          "name": "",
          "type": "tuple[]"
        }
      ],
      "stateMutability": "view",
      "type": "function"
    },
    {
      "inputs": [
        {
          "internalType": "uint256",
          "name": "tokenId",
          "type": "uint256"
        }
      ],
      "name": "getApproved",
      "outputs": [
        {
          "internalType": "address",
          "name": "",
          "type": "address"
        }
      ],
      "stateMutability": "view",
      "type": "function"
    },
    {
      "inputs": [
        {
          "internalType": "address",
          "name": "owner",
          "type": "address"
        }
      ],
      "name": "getOwnerTokens",
      "outputs": [
        {
          "components": [
            {
              "internalType": "uint256",
              "name": "tokenId",
              "type": "uint256"
            },
            {
              "internalType": "string",
              "name": "tokenURI",
              "type": "string"
            }
          ],
          "internalType": "struct NFT.Token[]",
          "name": "",
          "type": "tuple[]"
        }
      ],
      "stateMutability": "view",
      "type": "function"
    },
    {
      "inputs": [
        {
          "internalType": "address",
          "name": "owner",
          "type": "address"
        },
        {
          "internalType": "address",
          "name": "operator",
          "type": "address"
        }
      ],
      "name": "isApprovedForAll",
      "outputs": [
        {
          "internalType": "bool",
          "name": "",
          "type": "bool"
        }
      ],
      "stateMutability": "view",
      "type": "function"
    },
    {
      "inputs": [
        {
          "internalType": "string",
          "name": "_tokenURI",
          "type": "string"
        }
      ],
      "name": "mintToken",
      "outputs": [
        {
          "internalType": "uint256",
          "name": "",
          "type": "uint256"
        }
      ],
      "stateMutability": "nonpayable",
      "type": "function"
    },
    {
      "inputs": [],
      "name": "name",
      "outputs": [
        {
          "internalType": "string",
          "name": "",
          "type": "string"
        }
      ],
      "stateMutability": "view",
      "type": "function"
    },
    {
      "inputs": [
        {
          "internalType": "uint256",
          "name": "tokenId",
          "type": "uint256"
        }
      ],
      "name": "ownerOf",
      "outputs": [
        {
          "internalType": "address",
          "name": "",
          "type": "address"
        }
      ],
      "stateMutability": "view",
      "type": "function"
    },
    {
      "inputs": [
        {
          "internalType": "address",
          "name": "from",
          "type": "address"
        },
        {
          "internalType": "address",
          "name": "to",
          "type": "address"
        },
        {
          "internalType": "uint256",
          "name": "tokenId",
          "type": "uint256"
        }
      ],
      "name": "safeTransferFrom",
      "outputs": [],
      "stateMutability": "nonpayable",
      "type": "function"
    },
    {
      "inputs": [
        {
          "internalType": "address",
          "name": "from",
          "type": "address"
        },
        {
          "internalType": "address",
          "name": "to",
          "type": "address"
        },
        {
          "internalType": "uint256",
          "name": "tokenId",
          "type": "uint256"
        },
        {
          "internalType": "bytes",
          "name": "_data",
          "type": "bytes"
        }
      ],
      "name": "safeTransferFrom",
      "outputs": [],
      "stateMutability": "nonpayable",
      "type": "function"
    },
    {
      "inputs": [
        {
          "internalType": "address",
          "name": "operator",
          "type": "address"
        },
        {
          "internalType": "bool",
          "name": "approved",
          "type": "bool"
        }
      ],
      "name": "setApprovalForAll",
      "outputs": [],
      "stateMutability": "nonpayable",
      "type": "function"
    },
    {
      "inputs": [
        {
          "internalType": "bytes4",
          "name": "interfaceId",
          "type": "bytes4"
        }
      ],
      "name": "supportsInterface",
      "outputs": [
        {
          "internalType": "bool",
          "name": "",
          "type": "bool"
        }
      ],
      "stateMutability": "view",
      "type": "function"
    },
    {
      "inputs": [],
      "name": "symbol",
      "outputs": [
        {
          "internalType": "string",
          "name": "",
          "type": "string"
        }
      ],
      "stateMutability": "view",
      "type": "function"
    },
    {
      "inputs": [
        {
          "internalType": "uint256",
          "name": "index",
          "type": "uint256"
        }
      ],
      "name": "tokenByIndex",
      "outputs": [
        {
          "internalType": "uint256",
          "name": "",
          "type": "uint256"
        }
      ],
      "stateMutability": "view",
      "type": "function"
    },
    {
      "inputs": [
        {
          "internalType": "address",
          "name": "owner",
          "type": "address"
        },
        {
          "internalType": "uint256",
          "name": "index",
          "type": "uint256"
        }
      ],
      "name": "tokenOfOwnerByIndex",
      "outputs": [
        {
          "internalType": "uint256",
          "name": "",
          "type": "uint256"
        }
      ],
      "stateMutability": "view",
      "type": "function"
    },
    {
      "inputs": [
        {
          "internalType": "uint256",
          "name": "tokenId",
          "type": "uint256"
        }
      ],
      "name": "tokenURI",
      "outputs": [
        {
          "internalType": "string",
          "name": "",
          "type": "string"
        }
      ],
      "stateMutability": "view",
      "type": "function"
    },
    {
      "inputs": [],
      "name": "totalSupply",
      "outputs": [
        {
          "internalType": "uint256",
          "name": "",
          "type": "uint256"
        }
      ],
      "stateMutability": "view",
      "type": "function"
    },
    {
      "inputs": [
        {
          "internalType": "address",
          "name": "from",
          "type": "address"
        },
        {
          "internalType": "address",
          "name": "to",
          "type": "address"
        },
        {
          "internalType": "uint256",
          "name": "tokenId",
          "type": "uint256"
        }
      ],
      "name": "transferFrom",
      "outputs": [],
      "stateMutability": "nonpayable",
      "type": "function"
    }
  ],
  "bytecode": "0x60806040523480156200001157600080fd5b5060405162003b1b38038062003b1b8339818101604052810190620000379190620001e6565b6040518060400160405280600781526020017f4d79546f6b656e000000000000000000000000000000000000000000000000008152506040518060400160405280600381526020017f4d544b00000000000000000000000000000000000000000000000000000000008152508160009080519060200190620000bb9291906200011f565b508060019080519060200190620000d49291906200011f565b50505080600c60006101000a81548173ffffffffffffffffffffffffffffffffffffffff021916908373ffffffffffffffffffffffffffffffffffffffff16021790555050620002c5565b8280546200012d9062000246565b90600052602060002090601f0160209004810192826200015157600085556200019d565b82601f106200016c57805160ff19168380011785556200019d565b828001600101855582156200019d579182015b828111156200019c5782518255916020019190600101906200017f565b5b509050620001ac9190620001b0565b5090565b5b80821115620001cb576000816000905550600101620001b1565b5090565b600081519050620001e081620002ab565b92915050565b600060208284031215620001f957600080fd5b60006200020984828501620001cf565b91505092915050565b60006200021f8262000226565b9050919050565b600073ffffffffffffffffffffffffffffffffffffffff82169050919050565b600060028204905060018216806200025f57607f821691505b602082108114156200027657620002756200027c565b5b50919050565b7f4e487b7100000000000000000000000000000000000000000000000000000000600052602260045260246000fd5b620002b68162000212565b8114620002c257600080fd5b50565b61384680620002d56000396000f3fe608060405234801561001057600080fd5b50600436106101215760003560e01c806342842e0e116100ad578063a22cb46511610071578063a22cb46514610342578063b88d4fde1461035e578063c87b56dd1461037a578063d63d4af0146103aa578063e985e9c5146103da57610121565b806342842e0e146102785780634f6ccce7146102945780636352211e146102c457806370a08231146102f457806395d89b411461032457610121565b806318160ddd116100f457806318160ddd146101c057806323b872dd146101de5780632a5c792a146101fa5780632f745c591461021857806333eba49a1461024857610121565b806301ffc9a71461012657806306fdde0314610156578063081812fc14610174578063095ea7b3146101a4575b600080fd5b610140600480360381019061013b9190612614565b61040a565b60405161014d9190612bd1565b60405180910390f35b61015e61041c565b60405161016b9190612bec565b60405180910390f35b61018e600480360381019061018991906126a7565b6104ae565b60405161019b9190612b48565b60405180910390f35b6101be60048036038101906101b991906125d8565b610533565b005b6101c861064b565b6040516101d59190612e4e565b60405180910390f35b6101f860048036038101906101f391906124d2565b610658565b005b6102026106b8565b60405161020f9190612baf565b60405180910390f35b610232600480360381019061022d91906125d8565b6107e0565b60405161023f9190612e4e565b60405180910390f35b610262600480360381019061025d9190612666565b610885565b60405161026f9190612e4e565b60405180910390f35b610292600480360381019061028d91906124d2565b6108ea565b005b6102ae60048036038101906102a991906126a7565b61090a565b6040516102bb9190612e4e565b60405180910390f35b6102de60048036038101906102d991906126a7565b6109a1565b6040516102eb9190612b48565b60405180910390f35b61030e6004803603810190610309919061246d565b610a53565b60405161031b9190612e4e565b60405180910390f35b61032c610b0b565b6040516103399190612bec565b60405180910390f35b61035c6004803603810190610357919061259c565b610b9d565b005b61037860048036038101906103739190612521565b610bb3565b005b610394600480360381019061038f91906126a7565b610c15565b6040516103a19190612bec565b60405180910390f35b6103c460048036038101906103bf919061246d565b610c27565b6040516103d19190612baf565b60405180910390f35b6103f460048036038101906103ef9190612496565b610d53565b6040516104019190612bd1565b60405180910390f35b600061041582610de7565b9050919050565b60606000805461042b906130ee565b80601f0160208091040260200160405190810160405280929190818152602001828054610457906130ee565b80156104a45780601f10610479576101008083540402835291602001916104a4565b820191906000526020600020905b81548152906001019060200180831161048757829003601f168201915b5050505050905090565b60006104b982610e61565b6104f8576040517f08c379a00000000000000000000000000000000000000000000000000000000081526004016104ef90612dae565b60405180910390fd5b6004600083815260200190815260200160002060009054906101000a900473ffffffffffffffffffffffffffffffffffffffff169050919050565b600061053e826109a1565b90508073ffffffffffffffffffffffffffffffffffffffff168373ffffffffffffffffffffffffffffffffffffffff1614156105af576040517f08c379a00000000000000000000000000000000000000000000000000000000081526004016105a690612dee565b60405180910390fd5b8073ffffffffffffffffffffffffffffffffffffffff166105ce610ecd565b73ffffffffffffffffffffffffffffffffffffffff1614806105fd57506105fc816105f7610ecd565b610d53565b5b61063c576040517f08c379a000000000000000000000000000000000000000000000000000000000815260040161063390612cee565b60405180910390fd5b6106468383610ed5565b505050565b6000600880549050905090565b610669610663610ecd565b82610f8e565b6106a8576040517f08c379a000000000000000000000000000000000000000000000000000000000815260040161069f90612e0e565b60405180910390fd5b6106b383838361106c565b505050565b606060006106c461064b565b905060008167ffffffffffffffff811115610708577f4e487b7100000000000000000000000000000000000000000000000000000000600052604160045260246000fd5b60405190808252806020026020018201604052801561074157816020015b61072e612277565b8152602001906001900390816107265790505b50905060005b828110156107d757600061075a8261090a565b9050600061076782610c15565b90506040518060400160405280838152602001828152508484815181106107b7577f4e487b7100000000000000000000000000000000000000000000000000000000600052603260045260246000fd5b6020026020010181905250505080806107cf90613151565b915050610747565b50809250505090565b60006107eb83610a53565b821061082c576040517f08c379a000000000000000000000000000000000000000000000000000000000815260040161082390612c0e565b60405180910390fd5b600660008473ffffffffffffffffffffffffffffffffffffffff1673ffffffffffffffffffffffffffffffffffffffff168152602001908152602001600020600083815260200190815260200160002054905092915050565b6000610891600b6112d3565b600061089d600b6112e9565b90506108a933826112f7565b6108b381846114d1565b6108e133600c60009054906101000a900473ffffffffffffffffffffffffffffffffffffffff166001611545565b80915050919050565b61090583838360405180602001604052806000815250610bb3565b505050565b600061091461064b565b8210610955576040517f08c379a000000000000000000000000000000000000000000000000000000000815260040161094c90612e2e565b60405180910390fd5b6008828154811061098f577f4e487b7100000000000000000000000000000000000000000000000000000000600052603260045260246000fd5b90600052602060002001549050919050565b6000806002600084815260200190815260200160002060009054906101000a900473ffffffffffffffffffffffffffffffffffffffff169050600073ffffffffffffffffffffffffffffffffffffffff168173ffffffffffffffffffffffffffffffffffffffff161415610a4a576040517f08c379a0000000000000000000000000000000000000000000000000000000008152600401610a4190612d2e565b60405180910390fd5b80915050919050565b60008073ffffffffffffffffffffffffffffffffffffffff168273ffffffffffffffffffffffffffffffffffffffff161415610ac4576040517f08c379a0000000000000000000000000000000000000000000000000000000008152600401610abb90612d0e565b60405180910390fd5b600360008373ffffffffffffffffffffffffffffffffffffffff1673ffffffffffffffffffffffffffffffffffffffff168152602001908152602001600020549050919050565b606060018054610b1a906130ee565b80601f0160208091040260200160405190810160405280929190818152602001828054610b46906130ee565b8015610b935780601f10610b6857610100808354040283529160200191610b93565b820191906000526020600020905b815481529060010190602001808311610b7657829003601f168201915b5050505050905090565b610baf610ba8610ecd565b8383611545565b5050565b610bc4610bbe610ecd565b83610f8e565b610c03576040517f08c379a0000000000000000000000000000000000000000000000000000000008152600401610bfa90612e0e565b60405180910390fd5b610c0f848484846116b2565b50505050565b6060610c208261170e565b9050919050565b60606000610c3483610a53565b905060008167ffffffffffffffff811115610c78577f4e487b7100000000000000000000000000000000000000000000000000000000600052604160045260246000fd5b604051908082528060200260200182016040528015610cb157816020015b610c9e612277565b815260200190600190039081610c965790505b50905060005b82811015610d48576000610ccb86836107e0565b90506000610cd882610c15565b9050604051806040016040528083815260200182815250848481518110610d28577f4e487b7100000000000000000000000000000000000000000000000000000000600052603260045260246000fd5b602002602001018190525050508080610d4090613151565b915050610cb7565b508092505050919050565b6000600560008473ffffffffffffffffffffffffffffffffffffffff1673ffffffffffffffffffffffffffffffffffffffff16815260200190815260200160002060008373ffffffffffffffffffffffffffffffffffffffff1673ffffffffffffffffffffffffffffffffffffffff16815260200190815260200160002060009054906101000a900460ff16905092915050565b60007f780e9d63000000000000000000000000000000000000000000000000000000007bffffffffffffffffffffffffffffffffffffffffffffffffffffffff1916827bffffffffffffffffffffffffffffffffffffffffffffffffffffffff19161480610e5a5750610e5982611860565b5b9050919050565b60008073ffffffffffffffffffffffffffffffffffffffff166002600084815260200190815260200160002060009054906101000a900473ffffffffffffffffffffffffffffffffffffffff1673ffffffffffffffffffffffffffffffffffffffff1614159050919050565b600033905090565b816004600083815260200190815260200160002060006101000a81548173ffffffffffffffffffffffffffffffffffffffff021916908373ffffffffffffffffffffffffffffffffffffffff160217905550808273ffffffffffffffffffffffffffffffffffffffff16610f48836109a1565b73ffffffffffffffffffffffffffffffffffffffff167f8c5be1e5ebec7d5bd14f71427d1e84f3dd0314c0f7b2291e5b200ac8c7c3b92560405160405180910390a45050565b6000610f9982610e61565b610fd8576040517f08c379a0000000000000000000000000000000000000000000000000000000008152600401610fcf90612cce565b60405180910390fd5b6000610fe3836109a1565b90508073ffffffffffffffffffffffffffffffffffffffff168473ffffffffffffffffffffffffffffffffffffffff16148061102557506110248185610d53565b5b8061106357508373ffffffffffffffffffffffffffffffffffffffff1661104b846104ae565b73ffffffffffffffffffffffffffffffffffffffff16145b91505092915050565b8273ffffffffffffffffffffffffffffffffffffffff1661108c826109a1565b73ffffffffffffffffffffffffffffffffffffffff16146110e2576040517f08c379a00000000000000000000000000000000000000000000000000000000081526004016110d990612c4e565b60405180910390fd5b600073ffffffffffffffffffffffffffffffffffffffff168273ffffffffffffffffffffffffffffffffffffffff161415611152576040517f08c379a000000000000000000000000000000000000000000000000000000000815260040161114990612c8e565b60405180910390fd5b61115d838383611942565b611168600082610ed5565b6001600360008573ffffffffffffffffffffffffffffffffffffffff1673ffffffffffffffffffffffffffffffffffffffff16815260200190815260200160002060008282546111b89190613004565b925050819055506001600360008473ffffffffffffffffffffffffffffffffffffffff1673ffffffffffffffffffffffffffffffffffffffff168152602001908152602001600020600082825461120f9190612f7d565b92505081905550816002600083815260200190815260200160002060006101000a81548173ffffffffffffffffffffffffffffffffffffffff021916908373ffffffffffffffffffffffffffffffffffffffff160217905550808273ffffffffffffffffffffffffffffffffffffffff168473ffffffffffffffffffffffffffffffffffffffff167fddf252ad1be2c89b69c2b068fc378daa952ba7f163c4a11628f55a4df523b3ef60405160405180910390a46112ce838383611952565b505050565b6001816000016000828254019250508190555050565b600081600001549050919050565b600073ffffffffffffffffffffffffffffffffffffffff168273ffffffffffffffffffffffffffffffffffffffff161415611367576040517f08c379a000000000000000000000000000000000000000000000000000000000815260040161135e90612d6e565b60405180910390fd5b61137081610e61565b156113b0576040517f08c379a00000000000000000000000000000000000000000000000000000000081526004016113a790612c6e565b60405180910390fd5b6113bc60008383611942565b6001600360008473ffffffffffffffffffffffffffffffffffffffff1673ffffffffffffffffffffffffffffffffffffffff168152602001908152602001600020600082825461140c9190612f7d565b92505081905550816002600083815260200190815260200160002060006101000a81548173ffffffffffffffffffffffffffffffffffffffff021916908373ffffffffffffffffffffffffffffffffffffffff160217905550808273ffffffffffffffffffffffffffffffffffffffff16600073ffffffffffffffffffffffffffffffffffffffff167fddf252ad1be2c89b69c2b068fc378daa952ba7f163c4a11628f55a4df523b3ef60405160405180910390a46114cd60008383611952565b5050565b6114da82610e61565b611519576040517f08c379a000000000000000000000000000000000000000000000000000000000815260040161151090612d4e565b60405180910390fd5b80600a60008481526020019081526020016000209080519060200190611540929190612291565b505050565b8173ffffffffffffffffffffffffffffffffffffffff168373ffffffffffffffffffffffffffffffffffffffff1614156115b4576040517f08c379a00000000000000000000000000000000000000000000000000000000081526004016115ab90612cae565b60405180910390fd5b80600560008573ffffffffffffffffffffffffffffffffffffffff1673ffffffffffffffffffffffffffffffffffffffff16815260200190815260200160002060008473ffffffffffffffffffffffffffffffffffffffff1673ffffffffffffffffffffffffffffffffffffffff16815260200190815260200160002060006101000a81548160ff0219169083151502179055508173ffffffffffffffffffffffffffffffffffffffff168373ffffffffffffffffffffffffffffffffffffffff167f17307eab39ab6107e8899845ad3d59bd9653f200f220920489ca2b5937696c31836040516116a59190612bd1565b60405180910390a3505050565b6116bd84848461106c565b6116c984848484611957565b611708576040517f08c379a00000000000000000000000000000000000000000000000000000000081526004016116ff90612c2e565b60405180910390fd5b50505050565b606061171982610e61565b611758576040517f08c379a000000000000000000000000000000000000000000000000000000000815260040161174f90612d8e565b60405180910390fd5b6000600a60008481526020019081526020016000208054611778906130ee565b80601f01602080910402602001604051908101604052809291908181526020018280546117a4906130ee565b80156117f15780601f106117c6576101008083540402835291602001916117f1565b820191906000526020600020905b8154815290600101906020018083116117d457829003601f168201915b505050505090506000611802611aee565b905060008151141561181857819250505061185b565b60008251111561184d578082604051602001611835929190612b24565b6040516020818303038152906040529250505061185b565b61185684611b05565b925050505b919050565b60007f80ac58cd000000000000000000000000000000000000000000000000000000007bffffffffffffffffffffffffffffffffffffffffffffffffffffffff1916827bffffffffffffffffffffffffffffffffffffffffffffffffffffffff1916148061192b57507f5b5e139f000000000000000000000000000000000000000000000000000000007bffffffffffffffffffffffffffffffffffffffffffffffffffffffff1916827bffffffffffffffffffffffffffffffffffffffffffffffffffffffff1916145b8061193b575061193a82611bac565b5b9050919050565b61194d838383611c16565b505050565b505050565b60006119788473ffffffffffffffffffffffffffffffffffffffff16611d2a565b15611ae1578373ffffffffffffffffffffffffffffffffffffffff1663150b7a026119a1610ecd565b8786866040518563ffffffff1660e01b81526004016119c39493929190612b63565b602060405180830381600087803b1580156119dd57600080fd5b505af1925050508015611a0e57506040513d601f19601f82011682018060405250810190611a0b919061263d565b60015b611a91573d8060008114611a3e576040519150601f19603f3d011682016040523d82523d6000602084013e611a43565b606091505b50600081511415611a89576040517f08c379a0000000000000000000000000000000000000000000000000000000008152600401611a8090612c2e565b60405180910390fd5b805181602001fd5b63150b7a0260e01b7bffffffffffffffffffffffffffffffffffffffffffffffffffffffff1916817bffffffffffffffffffffffffffffffffffffffffffffffffffffffff191614915050611ae6565b600190505b949350505050565b606060405180602001604052806000815250905090565b6060611b1082610e61565b611b4f576040517f08c379a0000000000000000000000000000000000000000000000000000000008152600401611b4690612dce565b60405180910390fd5b6000611b59611aee565b90506000815111611b795760405180602001604052806000815250611ba4565b80611b8384611d4d565b604051602001611b94929190612b24565b6040516020818303038152906040525b915050919050565b60007f01ffc9a7000000000000000000000000000000000000000000000000000000007bffffffffffffffffffffffffffffffffffffffffffffffffffffffff1916827bffffffffffffffffffffffffffffffffffffffffffffffffffffffff1916149050919050565b611c21838383611efa565b600073ffffffffffffffffffffffffffffffffffffffff168373ffffffffffffffffffffffffffffffffffffffff161415611c6457611c5f81611eff565b611ca3565b8173ffffffffffffffffffffffffffffffffffffffff168373ffffffffffffffffffffffffffffffffffffffff1614611ca257611ca18382611f48565b5b5b600073ffffffffffffffffffffffffffffffffffffffff168273ffffffffffffffffffffffffffffffffffffffff161415611ce657611ce1816120b5565b611d25565b8273ffffffffffffffffffffffffffffffffffffffff168273ffffffffffffffffffffffffffffffffffffffff1614611d2457611d2382826121f8565b5b5b505050565b6000808273ffffffffffffffffffffffffffffffffffffffff163b119050919050565b60606000821415611d95576040518060400160405280600181526020017f30000000000000000000000000000000000000000000000000000000000000008152509050611ef5565b600082905060005b60008214611dc7578080611db090613151565b915050600a82611dc09190612fd3565b9150611d9d565b60008167ffffffffffffffff811115611e09577f4e487b7100000000000000000000000000000000000000000000000000000000600052604160045260246000fd5b6040519080825280601f01601f191660200182016040528015611e3b5781602001600182028036833780820191505090505b5090505b60008514611eee57600182611e549190613004565b9150600a85611e63919061319a565b6030611e6f9190612f7d565b60f81b818381518110611eab577f4e487b7100000000000000000000000000000000000000000000000000000000600052603260045260246000fd5b60200101907effffffffffffffffffffffffffffffffffffffffffffffffffffffffffffff1916908160001a905350600a85611ee79190612fd3565b9450611e3f565b8093505050505b919050565b505050565b6008805490506009600083815260200190815260200160002081905550600881908060018154018082558091505060019003906000526020600020016000909190919091505550565b60006001611f5584610a53565b611f5f9190613004565b9050600060076000848152602001908152602001600020549050818114612044576000600660008673ffffffffffffffffffffffffffffffffffffffff1673ffffffffffffffffffffffffffffffffffffffff168152602001908152602001600020600084815260200190815260200160002054905080600660008773ffffffffffffffffffffffffffffffffffffffff1673ffffffffffffffffffffffffffffffffffffffff168152602001908152602001600020600084815260200190815260200160002081905550816007600083815260200190815260200160002081905550505b6007600084815260200190815260200160002060009055600660008573ffffffffffffffffffffffffffffffffffffffff1673ffffffffffffffffffffffffffffffffffffffff16815260200190815260200160002060008381526020019081526020016000206000905550505050565b600060016008805490506120c99190613004565b905060006009600084815260200190815260200160002054905060006008838154811061211f577f4e487b7100000000000000000000000000000000000000000000000000000000600052603260045260246000fd5b906000526020600020015490508060088381548110612167577f4e487b7100000000000000000000000000000000000000000000000000000000600052603260045260246000fd5b9060005260206000200181905550816009600083815260200190815260200160002081905550600960008581526020019081526020016000206000905560088054806121dc577f4e487b7100000000000000000000000000000000000000000000000000000000600052603160045260246000fd5b6001900381819060005260206000200160009055905550505050565b600061220383610a53565b905081600660008573ffffffffffffffffffffffffffffffffffffffff1673ffffffffffffffffffffffffffffffffffffffff168152602001908152602001600020600083815260200190815260200160002081905550806007600084815260200190815260200160002081905550505050565b604051806040016040528060008152602001606081525090565b82805461229d906130ee565b90600052602060002090601f0160209004810192826122bf5760008555612306565b82601f106122d857805160ff1916838001178555612306565b82800160010185558215612306579182015b828111156123055782518255916020019190600101906122ea565b5b5090506123139190612317565b5090565b5b80821115612330576000816000905550600101612318565b5090565b600061234761234284612e8e565b612e69565b90508281526020810184848401111561235f57600080fd5b61236a8482856130ac565b509392505050565b600061238561238084612ebf565b612e69565b90508281526020810184848401111561239d57600080fd5b6123a88482856130ac565b509392505050565b6000813590506123bf816137b4565b92915050565b6000813590506123d4816137cb565b92915050565b6000813590506123e9816137e2565b92915050565b6000815190506123fe816137e2565b92915050565b600082601f83011261241557600080fd5b8135612425848260208601612334565b91505092915050565b600082601f83011261243f57600080fd5b813561244f848260208601612372565b91505092915050565b600081359050612467816137f9565b92915050565b60006020828403121561247f57600080fd5b600061248d848285016123b0565b91505092915050565b600080604083850312156124a957600080fd5b60006124b7858286016123b0565b92505060206124c8858286016123b0565b9150509250929050565b6000806000606084860312156124e757600080fd5b60006124f5868287016123b0565b9350506020612506868287016123b0565b925050604061251786828701612458565b9150509250925092565b6000806000806080858703121561253757600080fd5b6000612545878288016123b0565b9450506020612556878288016123b0565b935050604061256787828801612458565b925050606085013567ffffffffffffffff81111561258457600080fd5b61259087828801612404565b91505092959194509250565b600080604083850312156125af57600080fd5b60006125bd858286016123b0565b92505060206125ce858286016123c5565b9150509250929050565b600080604083850312156125eb57600080fd5b60006125f9858286016123b0565b925050602061260a85828601612458565b9150509250929050565b60006020828403121561262657600080fd5b6000612634848285016123da565b91505092915050565b60006020828403121561264f57600080fd5b600061265d848285016123ef565b91505092915050565b60006020828403121561267857600080fd5b600082013567ffffffffffffffff81111561269257600080fd5b61269e8482850161242e565b91505092915050565b6000602082840312156126b957600080fd5b60006126c784828501612458565b91505092915050565b60006126dc8383612ac9565b905092915050565b6126ed81613038565b82525050565b60006126fe82612f00565b6127088185612f2e565b93508360208202850161271a85612ef0565b8060005b85811015612756578484038952815161273785826126d0565b945061274283612f21565b925060208a0199505060018101905061271e565b50829750879550505050505092915050565b6127718161304a565b82525050565b600061278282612f0b565b61278c8185612f3f565b935061279c8185602086016130bb565b6127a581613287565b840191505092915050565b60006127bb82612f16565b6127c58185612f50565b93506127d58185602086016130bb565b6127de81613287565b840191505092915050565b60006127f482612f16565b6127fe8185612f61565b935061280e8185602086016130bb565b61281781613287565b840191505092915050565b600061282d82612f16565b6128378185612f72565b93506128478185602086016130bb565b80840191505092915050565b6000612860602b83612f61565b915061286b82613298565b604082019050919050565b6000612883603283612f61565b915061288e826132e7565b604082019050919050565b60006128a6602583612f61565b91506128b182613336565b604082019050919050565b60006128c9601c83612f61565b91506128d482613385565b602082019050919050565b60006128ec602483612f61565b91506128f7826133ae565b604082019050919050565b600061290f601983612f61565b915061291a826133fd565b602082019050919050565b6000612932602c83612f61565b915061293d82613426565b604082019050919050565b6000612955603883612f61565b915061296082613475565b604082019050919050565b6000612978602a83612f61565b9150612983826134c4565b604082019050919050565b600061299b602983612f61565b91506129a682613513565b604082019050919050565b60006129be602e83612f61565b91506129c982613562565b604082019050919050565b60006129e1602083612f61565b91506129ec826135b1565b602082019050919050565b6000612a04603183612f61565b9150612a0f826135da565b604082019050919050565b6000612a27602c83612f61565b9150612a3282613629565b604082019050919050565b6000612a4a602f83612f61565b9150612a5582613678565b604082019050919050565b6000612a6d602183612f61565b9150612a78826136c7565b604082019050919050565b6000612a90603183612f61565b9150612a9b82613716565b604082019050919050565b6000612ab3602c83612f61565b9150612abe82613765565b604082019050919050565b6000604083016000830151612ae16000860182612b06565b5060208301518482036020860152612af982826127b0565b9150508091505092915050565b612b0f816130a2565b82525050565b612b1e816130a2565b82525050565b6000612b308285612822565b9150612b3c8284612822565b91508190509392505050565b6000602082019050612b5d60008301846126e4565b92915050565b6000608082019050612b7860008301876126e4565b612b8560208301866126e4565b612b926040830185612b15565b8181036060830152612ba48184612777565b905095945050505050565b60006020820190508181036000830152612bc981846126f3565b905092915050565b6000602082019050612be66000830184612768565b92915050565b60006020820190508181036000830152612c0681846127e9565b905092915050565b60006020820190508181036000830152612c2781612853565b9050919050565b60006020820190508181036000830152612c4781612876565b9050919050565b60006020820190508181036000830152612c6781612899565b9050919050565b60006020820190508181036000830152612c87816128bc565b9050919050565b60006020820190508181036000830152612ca7816128df565b9050919050565b60006020820190508181036000830152612cc781612902565b9050919050565b60006020820190508181036000830152612ce781612925565b9050919050565b60006020820190508181036000830152612d0781612948565b9050919050565b60006020820190508181036000830152612d278161296b565b9050919050565b60006020820190508181036000830152612d478161298e565b9050919050565b60006020820190508181036000830152612d67816129b1565b9050919050565b60006020820190508181036000830152612d87816129d4565b9050919050565b60006020820190508181036000830152612da7816129f7565b9050919050565b60006020820190508181036000830152612dc781612a1a565b9050919050565b60006020820190508181036000830152612de781612a3d565b9050919050565b60006020820190508181036000830152612e0781612a60565b9050919050565b60006020820190508181036000830152612e2781612a83565b9050919050565b60006020820190508181036000830152612e4781612aa6565b9050919050565b6000602082019050612e636000830184612b15565b92915050565b6000612e73612e84565b9050612e7f8282613120565b919050565b6000604051905090565b600067ffffffffffffffff821115612ea957612ea8613258565b5b612eb282613287565b9050602081019050919050565b600067ffffffffffffffff821115612eda57612ed9613258565b5b612ee382613287565b9050602081019050919050565b6000819050602082019050919050565b600081519050919050565b600081519050919050565b600081519050919050565b6000602082019050919050565b600082825260208201905092915050565b600082825260208201905092915050565b600082825260208201905092915050565b600082825260208201905092915050565b600081905092915050565b6000612f88826130a2565b9150612f93836130a2565b9250827fffffffffffffffffffffffffffffffffffffffffffffffffffffffffffffffff03821115612fc857612fc76131cb565b5b828201905092915050565b6000612fde826130a2565b9150612fe9836130a2565b925082612ff957612ff86131fa565b5b828204905092915050565b600061300f826130a2565b915061301a836130a2565b92508282101561302d5761302c6131cb565b5b828203905092915050565b600061304382613082565b9050919050565b60008115159050919050565b60007fffffffff0000000000000000000000000000000000000000000000000000000082169050919050565b600073ffffffffffffffffffffffffffffffffffffffff82169050919050565b6000819050919050565b82818337600083830152505050565b60005b838110156130d95780820151818401526020810190506130be565b838111156130e8576000848401525b50505050565b6000600282049050600182168061310657607f821691505b6020821081141561311a57613119613229565b5b50919050565b61312982613287565b810181811067ffffffffffffffff8211171561314857613147613258565b5b80604052505050565b600061315c826130a2565b91507fffffffffffffffffffffffffffffffffffffffffffffffffffffffffffffffff82141561318f5761318e6131cb565b5b600182019050919050565b60006131a5826130a2565b91506131b0836130a2565b9250826131c0576131bf6131fa565b5b828206905092915050565b7f4e487b7100000000000000000000000000000000000000000000000000000000600052601160045260246000fd5b7f4e487b7100000000000000000000000000000000000000000000000000000000600052601260045260246000fd5b7f4e487b7100000000000000000000000000000000000000000000000000000000600052602260045260246000fd5b7f4e487b7100000000000000000000000000000000000000000000000000000000600052604160045260246000fd5b6000601f19601f8301169050919050565b7f455243373231456e756d657261626c653a206f776e657220696e646578206f7560008201527f74206f6620626f756e6473000000000000000000000000000000000000000000602082015250565b7f4552433732313a207472616e7366657220746f206e6f6e20455243373231526560008201527f63656976657220696d706c656d656e7465720000000000000000000000000000602082015250565b7f4552433732313a207472616e736665722066726f6d20696e636f72726563742060008201527f6f776e6572000000000000000000000000000000000000000000000000000000602082015250565b7f4552433732313a20746f6b656e20616c7265616479206d696e74656400000000600082015250565b7f4552433732313a207472616e7366657220746f20746865207a65726f2061646460008201527f7265737300000000000000000000000000000000000000000000000000000000602082015250565b7f4552433732313a20617070726f766520746f2063616c6c657200000000000000600082015250565b7f4552433732313a206f70657261746f7220717565727920666f72206e6f6e657860008201527f697374656e7420746f6b656e0000000000000000000000000000000000000000602082015250565b7f4552433732313a20617070726f76652063616c6c6572206973206e6f74206f7760008201527f6e6572206e6f7220617070726f76656420666f7220616c6c0000000000000000602082015250565b7f4552433732313a2062616c616e636520717565727920666f7220746865207a6560008201527f726f206164647265737300000000000000000000000000000000000000000000602082015250565b7f4552433732313a206f776e657220717565727920666f72206e6f6e657869737460008201527f656e7420746f6b656e0000000000000000000000000000000000000000000000602082015250565b7f45524337323155524953746f726167653a2055524920736574206f66206e6f6e60008201527f6578697374656e7420746f6b656e000000000000000000000000000000000000602082015250565b7f4552433732313a206d696e7420746f20746865207a65726f2061646472657373600082015250565b7f45524337323155524953746f726167653a2055524920717565727920666f722060008201527f6e6f6e6578697374656e7420746f6b656e000000000000000000000000000000602082015250565b7f4552433732313a20617070726f76656420717565727920666f72206e6f6e657860008201527f697374656e7420746f6b656e0000000000000000000000000000000000000000602082015250565b7f4552433732314d657461646174613a2055524920717565727920666f72206e6f60008201527f6e6578697374656e7420746f6b656e0000000000000000000000000000000000602082015250565b7f4552433732313a20617070726f76616c20746f2063757272656e74206f776e6560008201527f7200000000000000000000000000000000000000000000000000000000000000602082015250565b7f4552433732313a207472616e736665722063616c6c6572206973206e6f74206f60008201527f776e6572206e6f7220617070726f766564000000000000000000000000000000602082015250565b7f455243373231456e756d657261626c653a20676c6f62616c20696e646578206f60008201527f7574206f6620626f756e64730000000000000000000000000000000000000000602082015250565b6137bd81613038565b81146137c857600080fd5b50565b6137d48161304a565b81146137df57600080fd5b50565b6137eb81613056565b81146137f657600080fd5b50565b613802816130a2565b811461380d57600080fd5b5056fea2646970667358221220101e244c5b6a8bea9899f13258a2f239aedc5ca1e19f213f3de1dae99d600ed864736f6c63430008040033",
  "linkReferences": {},
  "deployedLinkReferences": {}
}