{
  "_format": "hh-sol-artifact-1",
  "contractName": "NFTMarketPlace",
  "sourceName": "contracts/NFTMarketPlace.sol",
  "abi": [
    {
      "inputs": [
        {
          "internalType": "uint256",
          "name": "_listingPrice",
          "type": "uint256"
        }
      ],
      "stateMutability": "nonpayable",
      "type": "constructor"
    },
    {
      "anonymous": false,
      "inputs": [
        {
          "indexed": true,
          "internalType": "uint256",
          "name": "itemId",
          "type": "uint256"
        },
        {
          "indexed": true,
          "internalType": "address",
          "name": "nftContract",
          "type": "address"
        },
        {
          "indexed": true,
          "internalType": "uint256",
          "name": "tokenId",
          "type": "uint256"
        },
        {
          "indexed": false,
          "internalType": "address",
          "name": "seller",
          "type": "address"
        },
        {
          "indexed": false,
          "internalType": "uint256",
          "name": "price",
          "type": "uint256"
        }
      ],
      "name": "MarketItemCreated",
      "type": "event"
    },
    {
      "anonymous": false,
      "inputs": [
        {
          "indexed": true,
          "internalType": "address",
          "name": "previousOwner",
          "type": "address"
        },
        {
          "indexed": true,
          "internalType": "address",
          "name": "newOwner",
          "type": "address"
        }
      ],
      "name": "OwnershipTransferred",
      "type": "event"
    },
    {
      "inputs": [
        {
          "internalType": "uint256",
          "name": "itemId",
          "type": "uint256"
        }
      ],
      "name": "buyMarketItem",
      "outputs": [],
      "stateMutability": "payable",
      "type": "function"
    },
    {
      "inputs": [
        {
          "internalType": "address",
          "name": "nftContract",
          "type": "address"
        },
        {
          "internalType": "uint256",
          "name": "tokenId",
          "type": "uint256"
        },
        {
          "internalType": "uint256",
          "name": "price",
          "type": "uint256"
        }
      ],
      "name": "createMarketItem",
      "outputs": [],
      "stateMutability": "payable",
      "type": "function"
    },
    {
      "inputs": [],
      "name": "listingPrice",
      "outputs": [
        {
          "internalType": "uint256",
          "name": "",
          "type": "uint256"
        }
      ],
      "stateMutability": "view",
      "type": "function"
    },
    {
      "inputs": [
        {
          "internalType": "uint256",
          "name": "",
          "type": "uint256"
        }
      ],
      "name": "marketItems",
      "outputs": [
        {
          "internalType": "uint256",
          "name": "itemId",
          "type": "uint256"
        },
        {
          "internalType": "address",
          "name": "nftContract",
          "type": "address"
        },
        {
          "internalType": "uint256",
          "name": "tokenId",
          "type": "uint256"
        },
        {
          "internalType": "address payable",
          "name": "seller",
          "type": "address"
        },
        {
          "internalType": "uint256",
          "name": "price",
          "type": "uint256"
        }
      ],
      "stateMutability": "view",
      "type": "function"
    },
    {
      "inputs": [],
      "name": "owner",
      "outputs": [
        {
          "internalType": "address",
          "name": "",
          "type": "address"
        }
      ],
      "stateMutability": "view",
      "type": "function"
    },
    {
      "inputs": [
        {
          "internalType": "uint256",
          "name": "itemId",
          "type": "uint256"
        }
      ],
      "name": "removeMarketItem",
      "outputs": [],
      "stateMutability": "nonpayable",
      "type": "function"
    },
    {
      "inputs": [],
      "name": "renounceOwnership",
      "outputs": [],
      "stateMutability": "nonpayable",
      "type": "function"
    },
    {
      "inputs": [
        {
          "internalType": "address",
          "name": "newOwner",
          "type": "address"
        }
      ],
      "name": "transferOwnership",
      "outputs": [],
      "stateMutability": "nonpayable",
      "type": "function"
    }
  ],
  "bytecode": "0x60806040523480156200001157600080fd5b506040516200205638038062002056833981810160405281019062000037919062000152565b60016000819055506200005f620000536200006d60201b60201c565b6200007560201b60201c565b8060038190555050620001a2565b600033905090565b6000600160009054906101000a900473ffffffffffffffffffffffffffffffffffffffff16905081600160006101000a81548173ffffffffffffffffffffffffffffffffffffffff021916908373ffffffffffffffffffffffffffffffffffffffff1602179055508173ffffffffffffffffffffffffffffffffffffffff168173ffffffffffffffffffffffffffffffffffffffff167f8be0079c531659141344cd1fd0a4f28419497f9722a3daafe3b4186f6b6457e060405160405180910390a35050565b6000815190506200014c8162000188565b92915050565b6000602082840312156200016557600080fd5b600062000175848285016200013b565b91505092915050565b6000819050919050565b62000193816200017e565b81146200019f57600080fd5b50565b611ea480620001b26000396000f3fe60806040526004361061007b5760003560e01c80637fb770cb1161004e5780637fb770cb146101105780638da5cb5b14610139578063c78f19f914610164578063f2fde38b1461018f5761007b565b8063351901c31461008057806351f28e141461009c57806358eb2df5146100dd578063715018a6146100f9575b600080fd5b61009a600480360381019061009591906115c0565b6101b8565b005b3480156100a857600080fd5b506100c360048036038101906100be91906115c0565b610527565b6040516100d4959493929190611a17565b60405180910390f35b6100f760048036038101906100f29190611571565b6105ad565b005b34801561010557600080fd5b5061010e610b46565b005b34801561011c57600080fd5b50610137600480360381019061013291906115c0565b610bce565b005b34801561014557600080fd5b5061014e610de7565b60405161015b9190611801565b60405180910390f35b34801561017057600080fd5b50610179610e11565b60405161018691906119fc565b60405180910390f35b34801561019b57600080fd5b506101b660048036038101906101b1919061151f565b610e17565b005b600260005414156101fe576040517f08c379a00000000000000000000000000000000000000000000000000000000081526004016101f5906119bc565b60405180910390fd5b60026000819055506006600082815260200190815260200160002060009054906101000a900460ff16610266576040517f08c379a000000000000000000000000000000000000000000000000000000000815260040161025d9061189c565b60405180910390fd5b6000600560008381526020019081526020016000205490506000600482815481106102ba577f4e487b7100000000000000000000000000000000000000000000000000000000600052603260045260246000fd5b90600052602060002090600502016040518060a0016040529081600082015481526020016001820160009054906101000a900473ffffffffffffffffffffffffffffffffffffffff1673ffffffffffffffffffffffffffffffffffffffff1673ffffffffffffffffffffffffffffffffffffffff168152602001600282015481526020016003820160009054906101000a900473ffffffffffffffffffffffffffffffffffffffff1673ffffffffffffffffffffffffffffffffffffffff1673ffffffffffffffffffffffffffffffffffffffff1681526020016004820154815250509050806080015134146103e5576040517f08c379a00000000000000000000000000000000000000000000000000000000081526004016103dc9061195c565b60405180910390fd5b6000816060015173ffffffffffffffffffffffffffffffffffffffff163460405161040f906117ec565b60006040518083038185875af1925050503d806000811461044c576040519150601f19603f3d011682016040523d82523d6000602084013e610451565b606091505b5050905080610495576040517f08c379a000000000000000000000000000000000000000000000000000000000815260040161048c9061197c565b60405180910390fd5b816020015173ffffffffffffffffffffffffffffffffffffffff166323b872dd83606001513385604001516040518463ffffffff1660e01b81526004016104de9392919061181c565b600060405180830381600087803b1580156104f857600080fd5b505af115801561050c573d6000803e3d6000fd5b5050505061051984610f0f565b505050600160008190555050565b6004818154811061053757600080fd5b90600052602060002090600502016000915090508060000154908060010160009054906101000a900473ffffffffffffffffffffffffffffffffffffffff16908060020154908060030160009054906101000a900473ffffffffffffffffffffffffffffffffffffffff16908060040154905085565b600260005414156105f3576040517f08c379a00000000000000000000000000000000000000000000000000000000081526004016105ea906119bc565b60405180910390fd5b600260008190555060001515600760008573ffffffffffffffffffffffffffffffffffffffff1673ffffffffffffffffffffffffffffffffffffffff168152602001908152602001600020600084815260200190815260200160002060009054906101000a900460ff1615151461069f576040517f08c379a00000000000000000000000000000000000000000000000000000000081526004016106969061199c565b60405180910390fd5b3373ffffffffffffffffffffffffffffffffffffffff168373ffffffffffffffffffffffffffffffffffffffff16636352211e846040518263ffffffff1660e01b81526004016106ef91906119fc565b60206040518083038186803b15801561070757600080fd5b505afa15801561071b573d6000803e3d6000fd5b505050506040513d601f19601f8201168201806040525081019061073f9190611548565b73ffffffffffffffffffffffffffffffffffffffff1614610795576040517f08c379a000000000000000000000000000000000000000000000000000000000815260040161078c9061193c565b60405180910390fd5b600081116107d8576040517f08c379a00000000000000000000000000000000000000000000000000000000081526004016107cf906119dc565b60405180910390fd5b600354341461081c576040517f08c379a0000000000000000000000000000000000000000000000000000000008152600401610813906118fc565b60405180910390fd5b61082660026113ee565b60006108326002611404565b905060006040518060a001604052808381526020018673ffffffffffffffffffffffffffffffffffffffff1681526020018581526020013373ffffffffffffffffffffffffffffffffffffffff16815260200184815250905060048190806001815401808255809150506001900390600052602060002090600502016000909190919091506000820151816000015560208201518160010160006101000a81548173ffffffffffffffffffffffffffffffffffffffff021916908373ffffffffffffffffffffffffffffffffffffffff1602179055506040820151816002015560608201518160030160006101000a81548173ffffffffffffffffffffffffffffffffffffffff021916908373ffffffffffffffffffffffffffffffffffffffff16021790555060808201518160040155505060016004805490506109779190611a86565b600560008481526020019081526020016000208190555060016006600084815260200190815260200160002060006101000a81548160ff0219169083151502179055506001600760008773ffffffffffffffffffffffffffffffffffffffff1673ffffffffffffffffffffffffffffffffffffffff168152602001908152602001600020600086815260200190815260200160002060006101000a81548160ff02191690831515021790555060006003541115610ae5576000610a38610de7565b73ffffffffffffffffffffffffffffffffffffffff16600354604051610a5d906117ec565b60006040518083038185875af1925050503d8060008114610a9a576040519150601f19603f3d011682016040523d82523d6000602084013e610a9f565b606091505b5050905080610ae3576040517f08c379a0000000000000000000000000000000000000000000000000000000008152600401610ada9061191c565b60405180910390fd5b505b838573ffffffffffffffffffffffffffffffffffffffff16837f6c768f237d15b0eedb46b2f49918dc5109839c2d232c382d377c40fabeeec92d3387604051610b2f929190611853565b60405180910390a450506001600081905550505050565b610b4e611412565b73ffffffffffffffffffffffffffffffffffffffff16610b6c610de7565b73ffffffffffffffffffffffffffffffffffffffff1614610bc2576040517f08c379a0000000000000000000000000000000000000000000000000000000008152600401610bb9906118dc565b60405180910390fd5b610bcc600061141a565b565b6006600082815260200190815260200160002060009054906101000a900460ff16610c2e576040517f08c379a0000000000000000000000000000000000000000000000000000000008152600401610c259061189c565b60405180910390fd5b600060056000838152602001908152602001600020549050600060048281548110610c82577f4e487b7100000000000000000000000000000000000000000000000000000000600052603260045260246000fd5b90600052602060002090600502016040518060a0016040529081600082015481526020016001820160009054906101000a900473ffffffffffffffffffffffffffffffffffffffff1673ffffffffffffffffffffffffffffffffffffffff1673ffffffffffffffffffffffffffffffffffffffff168152602001600282015481526020016003820160009054906101000a900473ffffffffffffffffffffffffffffffffffffffff1673ffffffffffffffffffffffffffffffffffffffff1673ffffffffffffffffffffffffffffffffffffffff16815260200160048201548152505090503373ffffffffffffffffffffffffffffffffffffffff16816060015173ffffffffffffffffffffffffffffffffffffffff1614610dd9576040517f08c379a0000000000000000000000000000000000000000000000000000000008152600401610dd09061187c565b60405180910390fd5b610de283610f0f565b505050565b6000600160009054906101000a900473ffffffffffffffffffffffffffffffffffffffff16905090565b60035481565b610e1f611412565b73ffffffffffffffffffffffffffffffffffffffff16610e3d610de7565b73ffffffffffffffffffffffffffffffffffffffff1614610e93576040517f08c379a0000000000000000000000000000000000000000000000000000000008152600401610e8a906118dc565b60405180910390fd5b600073ffffffffffffffffffffffffffffffffffffffff168173ffffffffffffffffffffffffffffffffffffffff161415610f03576040517f08c379a0000000000000000000000000000000000000000000000000000000008152600401610efa906118bc565b60405180910390fd5b610f0c8161141a565b50565b60006005600083815260200190815260200160002054905060006004805490509050600060048381548110610f6d577f4e487b7100000000000000000000000000000000000000000000000000000000600052603260045260246000fd5b90600052602060002090600502016040518060a0016040529081600082015481526020016001820160009054906101000a900473ffffffffffffffffffffffffffffffffffffffff1673ffffffffffffffffffffffffffffffffffffffff1673ffffffffffffffffffffffffffffffffffffffff168152602001600282015481526020016003820160009054906101000a900473ffffffffffffffffffffffffffffffffffffffff1673ffffffffffffffffffffffffffffffffffffffff1673ffffffffffffffffffffffffffffffffffffffff1681526020016004820154815250509050600060046001846110639190611a86565b8154811061109a577f4e487b7100000000000000000000000000000000000000000000000000000000600052603260045260246000fd5b90600052602060002090600502016040518060a0016040529081600082015481526020016001820160009054906101000a900473ffffffffffffffffffffffffffffffffffffffff1673ffffffffffffffffffffffffffffffffffffffff1673ffffffffffffffffffffffffffffffffffffffff168152602001600282015481526020016003820160009054906101000a900473ffffffffffffffffffffffffffffffffffffffff1673ffffffffffffffffffffffffffffffffffffffff1673ffffffffffffffffffffffffffffffffffffffff168152602001600482015481525050905080600485815481106111ba577f4e487b7100000000000000000000000000000000000000000000000000000000600052603260045260246000fd5b90600052602060002090600502016000820151816000015560208201518160010160006101000a81548173ffffffffffffffffffffffffffffffffffffffff021916908373ffffffffffffffffffffffffffffffffffffffff1602179055506040820151816002015560608201518160030160006101000a81548173ffffffffffffffffffffffffffffffffffffffff021916908373ffffffffffffffffffffffffffffffffffffffff160217905550608082015181600401559050508360056000836000015181526020019081526020016000208190555060006006600087815260200190815260200160002060006101000a81548160ff021916908315150217905550600060076000846020015173ffffffffffffffffffffffffffffffffffffffff1673ffffffffffffffffffffffffffffffffffffffff16815260200190815260200160002060008460400151815260200190815260200160002060006101000a81548160ff0219169083151502179055506004805480611368577f4e487b7100000000000000000000000000000000000000000000000000000000600052603160045260246000fd5b60019003818190600052602060002090600502016000808201600090556001820160006101000a81549073ffffffffffffffffffffffffffffffffffffffff021916905560028201600090556003820160006101000a81549073ffffffffffffffffffffffffffffffffffffffff02191690556004820160009055505090555050505050565b6001816000016000828254019250508190555050565b600081600001549050919050565b600033905090565b6000600160009054906101000a900473ffffffffffffffffffffffffffffffffffffffff16905081600160006101000a81548173ffffffffffffffffffffffffffffffffffffffff021916908373ffffffffffffffffffffffffffffffffffffffff1602179055508173ffffffffffffffffffffffffffffffffffffffff168173ffffffffffffffffffffffffffffffffffffffff167f8be0079c531659141344cd1fd0a4f28419497f9722a3daafe3b4186f6b6457e060405160405180910390a35050565b6000813590506114ef81611e40565b92915050565b60008151905061150481611e40565b92915050565b60008135905061151981611e57565b92915050565b60006020828403121561153157600080fd5b600061153f848285016114e0565b91505092915050565b60006020828403121561155a57600080fd5b6000611568848285016114f5565b91505092915050565b60008060006060848603121561158657600080fd5b6000611594868287016114e0565b93505060206115a58682870161150a565b92505060406115b68682870161150a565b9150509250925092565b6000602082840312156115d257600080fd5b60006115e08482850161150a565b91505092915050565b6115f281611b08565b82525050565b61160181611acc565b82525050565b61161081611aba565b82525050565b6000611623602483611a75565b915061162e82611b6d565b604082019050919050565b6000611646601483611a75565b915061165182611bbc565b602082019050919050565b6000611669602683611a75565b915061167482611be5565b604082019050919050565b600061168c602083611a75565b915061169782611c34565b602082019050919050565b60006116af602883611a75565b91506116ba82611c5d565b604082019050919050565b60006116d2602d83611a75565b91506116dd82611cac565b604082019050919050565b60006116f5602383611a75565b915061170082611cfb565b604082019050919050565b6000611718600083611a6a565b915061172382611d4a565b600082019050919050565b600061173b602b83611a75565b915061174682611d4d565b604082019050919050565b600061175e601e83611a75565b915061176982611d9c565b602082019050919050565b6000611781601383611a75565b915061178c82611dc5565b602082019050919050565b60006117a4601f83611a75565b91506117af82611dee565b602082019050919050565b60006117c7601c83611a75565b91506117d282611e17565b602082019050919050565b6117e681611afe565b82525050565b60006117f78261170b565b9150819050919050565b60006020820190506118166000830184611607565b92915050565b600060608201905061183160008301866115e9565b61183e6020830185611607565b61184b60408301846117dd565b949350505050565b60006040820190506118686000830185611607565b61187560208301846117dd565b9392505050565b6000602082019050818103600083015261189581611616565b9050919050565b600060208201905081810360008301526118b581611639565b9050919050565b600060208201905081810360008301526118d58161165c565b9050919050565b600060208201905081810360008301526118f58161167f565b9050919050565b60006020820190508181036000830152611915816116a2565b9050919050565b60006020820190508181036000830152611935816116c5565b9050919050565b60006020820190508181036000830152611955816116e8565b9050919050565b600060208201905081810360008301526119758161172e565b9050919050565b6000602082019050818103600083015261199581611751565b9050919050565b600060208201905081810360008301526119b581611774565b9050919050565b600060208201905081810360008301526119d581611797565b9050919050565b600060208201905081810360008301526119f5816117ba565b9050919050565b6000602082019050611a1160008301846117dd565b92915050565b600060a082019050611a2c60008301886117dd565b611a396020830187611607565b611a4660408301866117dd565b611a5360608301856115f8565b611a6060808301846117dd565b9695505050505050565b600081905092915050565b600082825260208201905092915050565b6000611a9182611afe565b9150611a9c83611afe565b925082821015611aaf57611aae611b3e565b5b828203905092915050565b6000611ac582611ade565b9050919050565b6000611ad782611ade565b9050919050565b600073ffffffffffffffffffffffffffffffffffffffff82169050919050565b6000819050919050565b6000611b1382611b1a565b9050919050565b6000611b2582611b2c565b9050919050565b6000611b3782611ade565b9050919050565b7f4e487b7100000000000000000000000000000000000000000000000000000000600052601160045260246000fd5b7f6f6e6c7920746865206f776e6572206f66206974656d2063616e2072656d6f7660008201527f6520697400000000000000000000000000000000000000000000000000000000602082015250565b7f6974656d206964206973206e6f742076616c6964000000000000000000000000600082015250565b7f4f776e61626c653a206e6577206f776e657220697320746865207a65726f206160008201527f6464726573730000000000000000000000000000000000000000000000000000602082015250565b7f4f776e61626c653a2063616c6c6572206973206e6f7420746865206f776e6572600082015250565b7f6d73672e76616c7565206d75737420626520657175616c20746f206c6973746960008201527f6e67207072696365000000000000000000000000000000000000000000000000602082015250565b7f4661696c656420746f2073656e6420457468657220746f20746865206f776e6560008201527f72206f6620636f6e747261637400000000000000000000000000000000000000602082015250565b7f6f6e6c7920746865206f776e6572206f6620746f6b656e2063616e2073656c6c60008201527f2069740000000000000000000000000000000000000000000000000000000000602082015250565b50565b7f6d73672e76616c7565206d75737420626520657175616c20746f206d61726b6560008201527f744974656d207072696365000000000000000000000000000000000000000000602082015250565b7f4661696c656420746f2073656e6420457468657220746f2073656c6c65720000600082015250565b7f6974656d20616c72656164792065786973747300000000000000000000000000600082015250565b7f5265656e7472616e637947756172643a207265656e7472616e742063616c6c00600082015250565b7f5072696365206d757374206265206174206c6561737420312077656900000000600082015250565b611e4981611aba565b8114611e5457600080fd5b50565b611e6081611afe565b8114611e6b57600080fd5b5056fea26469706673582212202d2ffb4900fc6b3c0407574937fc38ab5738f2a923eac81e145f24c544cb0ec964736f6c63430008040033",
  "linkReferences": {},
  "deployedLinkReferences": {}
}