{
  "_format": "hh-sol-artifact-1",
  "contractName": "NFTMarketPlace",
  "sourceName": "contracts/NFTMarketPlace.sol",
  "abi": [
    {
      "inputs": [
        {
          "internalType": "uint256",
          "name": "_listingPrice",
          "type": "uint256"
        }
      ],
      "stateMutability": "nonpayable",
      "type": "constructor"
    },
    {
      "anonymous": false,
      "inputs": [
        {
          "indexed": true,
          "internalType": "uint256",
          "name": "itemId",
          "type": "uint256"
        },
        {
          "indexed": true,
          "internalType": "address",
          "name": "nftContract",
          "type": "address"
        },
        {
          "indexed": true,
          "internalType": "uint256",
          "name": "tokenId",
          "type": "uint256"
        },
        {
          "indexed": false,
          "internalType": "address",
          "name": "seller",
          "type": "address"
        },
        {
          "indexed": false,
          "internalType": "uint256",
          "name": "price",
          "type": "uint256"
        }
      ],
      "name": "MarketItemCreated",
      "type": "event"
    },
    {
      "anonymous": false,
      "inputs": [
        {
          "indexed": true,
          "internalType": "address",
          "name": "previousOwner",
          "type": "address"
        },
        {
          "indexed": true,
          "internalType": "address",
          "name": "newOwner",
          "type": "address"
        }
      ],
      "name": "OwnershipTransferred",
      "type": "event"
    },
    {
      "inputs": [
        {
          "internalType": "address",
          "name": "",
          "type": "address"
        },
        {
          "internalType": "uint256",
          "name": "",
          "type": "uint256"
        }
      ],
      "name": "_marketItemExists",
      "outputs": [
        {
          "internalType": "uint256",
          "name": "",
          "type": "uint256"
        }
      ],
      "stateMutability": "view",
      "type": "function"
    },
    {
      "inputs": [
        {
          "internalType": "uint256",
          "name": "itemId",
          "type": "uint256"
        }
      ],
      "name": "buyMarketItem",
      "outputs": [],
      "stateMutability": "payable",
      "type": "function"
    },
    {
      "inputs": [
        {
          "internalType": "address",
          "name": "nftContract",
          "type": "address"
        },
        {
          "internalType": "uint256",
          "name": "tokenId",
          "type": "uint256"
        },
        {
          "internalType": "uint256",
          "name": "price",
          "type": "uint256"
        }
      ],
      "name": "createMarketItem",
      "outputs": [],
      "stateMutability": "payable",
      "type": "function"
    },
    {
      "inputs": [],
      "name": "getMarketItems",
      "outputs": [
        {
          "components": [
            {
              "internalType": "uint256",
              "name": "itemId",
              "type": "uint256"
            },
            {
              "internalType": "address",
              "name": "nftContract",
              "type": "address"
            },
            {
              "internalType": "uint256",
              "name": "tokenId",
              "type": "uint256"
            },
            {
              "internalType": "address payable",
              "name": "seller",
              "type": "address"
            },
            {
              "internalType": "uint256",
              "name": "price",
              "type": "uint256"
            }
          ],
          "internalType": "struct NFTMarketPlace.MarketItem[]",
          "name": "",
          "type": "tuple[]"
        }
      ],
      "stateMutability": "view",
      "type": "function"
    },
    {
      "inputs": [],
      "name": "listingPrice",
      "outputs": [
        {
          "internalType": "uint256",
          "name": "",
          "type": "uint256"
        }
      ],
      "stateMutability": "view",
      "type": "function"
    },
    {
      "inputs": [
        {
          "internalType": "uint256",
          "name": "",
          "type": "uint256"
        }
      ],
      "name": "marketItems",
      "outputs": [
        {
          "internalType": "uint256",
          "name": "itemId",
          "type": "uint256"
        },
        {
          "internalType": "address",
          "name": "nftContract",
          "type": "address"
        },
        {
          "internalType": "uint256",
          "name": "tokenId",
          "type": "uint256"
        },
        {
          "internalType": "address payable",
          "name": "seller",
          "type": "address"
        },
        {
          "internalType": "uint256",
          "name": "price",
          "type": "uint256"
        }
      ],
      "stateMutability": "view",
      "type": "function"
    },
    {
      "inputs": [],
      "name": "owner",
      "outputs": [
        {
          "internalType": "address",
          "name": "",
          "type": "address"
        }
      ],
      "stateMutability": "view",
      "type": "function"
    },
    {
      "inputs": [
        {
          "internalType": "uint256",
          "name": "itemId",
          "type": "uint256"
        }
      ],
      "name": "removeMarketItem",
      "outputs": [],
      "stateMutability": "nonpayable",
      "type": "function"
    },
    {
      "inputs": [],
      "name": "renounceOwnership",
      "outputs": [],
      "stateMutability": "nonpayable",
      "type": "function"
    },
    {
      "inputs": [
        {
          "internalType": "address",
          "name": "newOwner",
          "type": "address"
        }
      ],
      "name": "transferOwnership",
      "outputs": [],
      "stateMutability": "nonpayable",
      "type": "function"
    }
  ],
  "bytecode": "0x60806040523480156200001157600080fd5b506040516200238c3803806200238c833981810160405281019062000037919062000152565b60016000819055506200005f620000536200006d60201b60201c565b6200007560201b60201c565b8060038190555050620001a2565b600033905090565b6000600160009054906101000a900473ffffffffffffffffffffffffffffffffffffffff16905081600160006101000a81548173ffffffffffffffffffffffffffffffffffffffff021916908373ffffffffffffffffffffffffffffffffffffffff1602179055508173ffffffffffffffffffffffffffffffffffffffff168173ffffffffffffffffffffffffffffffffffffffff167f8be0079c531659141344cd1fd0a4f28419497f9722a3daafe3b4186f6b6457e060405160405180910390a35050565b6000815190506200014c8162000188565b92915050565b6000602082840312156200016557600080fd5b600062000175848285016200013b565b91505092915050565b6000819050919050565b62000193816200017e565b81146200019f57600080fd5b50565b6121da80620001b26000396000f3fe6080604052600436106100915760003560e01c80637fb770cb116100595780637fb770cb146101515780638da5cb5b1461017a5780639cae9210146101a5578063c78f19f9146101e2578063f2fde38b1461020d57610091565b806329aa3a4214610096578063351901c3146100c157806351f28e14146100dd57806358eb2df51461011e578063715018a61461013a575b600080fd5b3480156100a257600080fd5b506100ab610236565b6040516100b89190611b57565b60405180910390f35b6100db60048036038101906100d69190611790565b61035f565b005b3480156100e957600080fd5b5061010460048036038101906100ff9190611790565b6106ce565b604051610115959493929190611d14565b60405180910390f35b61013860048036038101906101339190611741565b610754565b005b34801561014657600080fd5b5061014f610cc8565b005b34801561015d57600080fd5b5061017860048036038101906101739190611790565b610d50565b005b34801561018657600080fd5b5061018f610f69565b60405161019c9190611adc565b60405180910390f35b3480156101b157600080fd5b506101cc60048036038101906101c79190611705565b610f93565b6040516101d99190611cf9565b60405180910390f35b3480156101ee57600080fd5b506101f7610fb8565b6040516102049190611cf9565b60405180910390f35b34801561021957600080fd5b50610234600480360381019061022f91906116b3565b610fbe565b005b60606004805480602002602001604051908101604052809291908181526020016000905b8282101561035657838290600052602060002090600502016040518060a0016040529081600082015481526020016001820160009054906101000a900473ffffffffffffffffffffffffffffffffffffffff1673ffffffffffffffffffffffffffffffffffffffff1673ffffffffffffffffffffffffffffffffffffffff168152602001600282015481526020016003820160009054906101000a900473ffffffffffffffffffffffffffffffffffffffff1673ffffffffffffffffffffffffffffffffffffffff1673ffffffffffffffffffffffffffffffffffffffff1681526020016004820154815250508152602001906001019061025a565b50505050905090565b600260005414156103a5576040517f08c379a000000000000000000000000000000000000000000000000000000000815260040161039c90611cb9565b60405180910390fd5b60026000819055506006600082815260200190815260200160002060009054906101000a900460ff1661040d576040517f08c379a000000000000000000000000000000000000000000000000000000000815260040161040490611b99565b60405180910390fd5b600060056000838152602001908152602001600020549050600060048281548110610461577f4e487b7100000000000000000000000000000000000000000000000000000000600052603260045260246000fd5b90600052602060002090600502016040518060a0016040529081600082015481526020016001820160009054906101000a900473ffffffffffffffffffffffffffffffffffffffff1673ffffffffffffffffffffffffffffffffffffffff1673ffffffffffffffffffffffffffffffffffffffff168152602001600282015481526020016003820160009054906101000a900473ffffffffffffffffffffffffffffffffffffffff1673ffffffffffffffffffffffffffffffffffffffff1673ffffffffffffffffffffffffffffffffffffffff16815260200160048201548152505090508060800151341461058c576040517f08c379a000000000000000000000000000000000000000000000000000000000815260040161058390611c59565b60405180910390fd5b6000816060015173ffffffffffffffffffffffffffffffffffffffff16346040516105b690611ac7565b60006040518083038185875af1925050503d80600081146105f3576040519150601f19603f3d011682016040523d82523d6000602084013e6105f8565b606091505b505090508061063c576040517f08c379a000000000000000000000000000000000000000000000000000000000815260040161063390611c79565b60405180910390fd5b816020015173ffffffffffffffffffffffffffffffffffffffff166323b872dd83606001513385604001516040518463ffffffff1660e01b815260040161068593929190611af7565b600060405180830381600087803b15801561069f57600080fd5b505af11580156106b3573d6000803e3d6000fd5b505050506106c0846110b6565b505050600160008190555050565b600481815481106106de57600080fd5b90600052602060002090600502016000915090508060000154908060010160009054906101000a900473ffffffffffffffffffffffffffffffffffffffff16908060020154908060030160009054906101000a900473ffffffffffffffffffffffffffffffffffffffff16908060040154905085565b6002600054141561079a576040517f08c379a000000000000000000000000000000000000000000000000000000000815260040161079190611cb9565b60405180910390fd5b60026000819055506000600760008573ffffffffffffffffffffffffffffffffffffffff1673ffffffffffffffffffffffffffffffffffffffff16815260200190815260200160002060008481526020019081526020016000205414610835576040517f08c379a000000000000000000000000000000000000000000000000000000000815260040161082c90611c99565b60405180910390fd5b3373ffffffffffffffffffffffffffffffffffffffff168373ffffffffffffffffffffffffffffffffffffffff16636352211e846040518263ffffffff1660e01b81526004016108859190611cf9565b60206040518083038186803b15801561089d57600080fd5b505afa1580156108b1573d6000803e3d6000fd5b505050506040513d601f19601f820116820180604052508101906108d591906116dc565b73ffffffffffffffffffffffffffffffffffffffff161461092b576040517f08c379a000000000000000000000000000000000000000000000000000000000815260040161092290611c39565b60405180910390fd5b6000811161096e576040517f08c379a000000000000000000000000000000000000000000000000000000000815260040161096590611cd9565b60405180910390fd5b60035434146109b2576040517f08c379a00000000000000000000000000000000000000000000000000000000081526004016109a990611bf9565b60405180910390fd5b6109bc6002611582565b60006109c86002611598565b905060006040518060a001604052808381526020018673ffffffffffffffffffffffffffffffffffffffff1681526020018581526020013373ffffffffffffffffffffffffffffffffffffffff16815260200184815250905060048190806001815401808255809150506001900390600052602060002090600502016000909190919091506000820151816000015560208201518160010160006101000a81548173ffffffffffffffffffffffffffffffffffffffff021916908373ffffffffffffffffffffffffffffffffffffffff1602179055506040820151816002015560608201518160030160006101000a81548173ffffffffffffffffffffffffffffffffffffffff021916908373ffffffffffffffffffffffffffffffffffffffff1602179055506080820151816004015550506001600480549050610b0d9190611dbc565b600560008481526020019081526020016000208190555060016006600084815260200190815260200160002060006101000a81548160ff02191690831515021790555081600760008773ffffffffffffffffffffffffffffffffffffffff1673ffffffffffffffffffffffffffffffffffffffff16815260200190815260200160002060008681526020019081526020016000208190555060006003541115610c67576000610bba610f69565b73ffffffffffffffffffffffffffffffffffffffff16600354604051610bdf90611ac7565b60006040518083038185875af1925050503d8060008114610c1c576040519150601f19603f3d011682016040523d82523d6000602084013e610c21565b606091505b5050905080610c65576040517f08c379a0000000000000000000000000000000000000000000000000000000008152600401610c5c90611c19565b60405180910390fd5b505b838573ffffffffffffffffffffffffffffffffffffffff16837f6c768f237d15b0eedb46b2f49918dc5109839c2d232c382d377c40fabeeec92d3387604051610cb1929190611b2e565b60405180910390a450506001600081905550505050565b610cd06115a6565b73ffffffffffffffffffffffffffffffffffffffff16610cee610f69565b73ffffffffffffffffffffffffffffffffffffffff1614610d44576040517f08c379a0000000000000000000000000000000000000000000000000000000008152600401610d3b90611bd9565b60405180910390fd5b610d4e60006115ae565b565b6006600082815260200190815260200160002060009054906101000a900460ff16610db0576040517f08c379a0000000000000000000000000000000000000000000000000000000008152600401610da790611b99565b60405180910390fd5b600060056000838152602001908152602001600020549050600060048281548110610e04577f4e487b7100000000000000000000000000000000000000000000000000000000600052603260045260246000fd5b90600052602060002090600502016040518060a0016040529081600082015481526020016001820160009054906101000a900473ffffffffffffffffffffffffffffffffffffffff1673ffffffffffffffffffffffffffffffffffffffff1673ffffffffffffffffffffffffffffffffffffffff168152602001600282015481526020016003820160009054906101000a900473ffffffffffffffffffffffffffffffffffffffff1673ffffffffffffffffffffffffffffffffffffffff1673ffffffffffffffffffffffffffffffffffffffff16815260200160048201548152505090503373ffffffffffffffffffffffffffffffffffffffff16816060015173ffffffffffffffffffffffffffffffffffffffff1614610f5b576040517f08c379a0000000000000000000000000000000000000000000000000000000008152600401610f5290611b79565b60405180910390fd5b610f64836110b6565b505050565b6000600160009054906101000a900473ffffffffffffffffffffffffffffffffffffffff16905090565b6007602052816000526040600020602052806000526040600020600091509150505481565b60035481565b610fc66115a6565b73ffffffffffffffffffffffffffffffffffffffff16610fe4610f69565b73ffffffffffffffffffffffffffffffffffffffff161461103a576040517f08c379a000000000000000000000000000000000000000000000000000000000815260040161103190611bd9565b60405180910390fd5b600073ffffffffffffffffffffffffffffffffffffffff168173ffffffffffffffffffffffffffffffffffffffff1614156110aa576040517f08c379a00000000000000000000000000000000000000000000000000000000081526004016110a190611bb9565b60405180910390fd5b6110b3816115ae565b50565b60006005600083815260200190815260200160002054905060006004805490509050600060048381548110611114577f4e487b7100000000000000000000000000000000000000000000000000000000600052603260045260246000fd5b90600052602060002090600502016040518060a0016040529081600082015481526020016001820160009054906101000a900473ffffffffffffffffffffffffffffffffffffffff1673ffffffffffffffffffffffffffffffffffffffff1673ffffffffffffffffffffffffffffffffffffffff168152602001600282015481526020016003820160009054906101000a900473ffffffffffffffffffffffffffffffffffffffff1673ffffffffffffffffffffffffffffffffffffffff1673ffffffffffffffffffffffffffffffffffffffff16815260200160048201548152505090506000600460018461120a9190611dbc565b81548110611241577f4e487b7100000000000000000000000000000000000000000000000000000000600052603260045260246000fd5b90600052602060002090600502016040518060a0016040529081600082015481526020016001820160009054906101000a900473ffffffffffffffffffffffffffffffffffffffff1673ffffffffffffffffffffffffffffffffffffffff1673ffffffffffffffffffffffffffffffffffffffff168152602001600282015481526020016003820160009054906101000a900473ffffffffffffffffffffffffffffffffffffffff1673ffffffffffffffffffffffffffffffffffffffff1673ffffffffffffffffffffffffffffffffffffffff16815260200160048201548152505090508060048581548110611361577f4e487b7100000000000000000000000000000000000000000000000000000000600052603260045260246000fd5b90600052602060002090600502016000820151816000015560208201518160010160006101000a81548173ffffffffffffffffffffffffffffffffffffffff021916908373ffffffffffffffffffffffffffffffffffffffff1602179055506040820151816002015560608201518160030160006101000a81548173ffffffffffffffffffffffffffffffffffffffff021916908373ffffffffffffffffffffffffffffffffffffffff160217905550608082015181600401559050508360056000836000015181526020019081526020016000208190555060006006600087815260200190815260200160002060006101000a81548160ff021916908315150217905550600060076000846020015173ffffffffffffffffffffffffffffffffffffffff1673ffffffffffffffffffffffffffffffffffffffff1681526020019081526020016000206000846040015181526020019081526020016000208190555060048054806114fc577f4e487b7100000000000000000000000000000000000000000000000000000000600052603160045260246000fd5b60019003818190600052602060002090600502016000808201600090556001820160006101000a81549073ffffffffffffffffffffffffffffffffffffffff021916905560028201600090556003820160006101000a81549073ffffffffffffffffffffffffffffffffffffffff02191690556004820160009055505090555050505050565b6001816000016000828254019250508190555050565b600081600001549050919050565b600033905090565b6000600160009054906101000a900473ffffffffffffffffffffffffffffffffffffffff16905081600160006101000a81548173ffffffffffffffffffffffffffffffffffffffff021916908373ffffffffffffffffffffffffffffffffffffffff1602179055508173ffffffffffffffffffffffffffffffffffffffff168173ffffffffffffffffffffffffffffffffffffffff167f8be0079c531659141344cd1fd0a4f28419497f9722a3daafe3b4186f6b6457e060405160405180910390a35050565b60008135905061168381612176565b92915050565b60008151905061169881612176565b92915050565b6000813590506116ad8161218d565b92915050565b6000602082840312156116c557600080fd5b60006116d384828501611674565b91505092915050565b6000602082840312156116ee57600080fd5b60006116fc84828501611689565b91505092915050565b6000806040838503121561171857600080fd5b600061172685828601611674565b92505060206117378582860161169e565b9150509250929050565b60008060006060848603121561175657600080fd5b600061176486828701611674565b93505060206117758682870161169e565b92505060406117868682870161169e565b9150509250925092565b6000602082840312156117a257600080fd5b60006117b08482850161169e565b91505092915050565b60006117c58383611a41565b60a08301905092915050565b6117da81611e3e565b82525050565b6117e981611e02565b82525050565b6117f881611e02565b82525050565b61180781611df0565b82525050565b61181681611df0565b82525050565b600061182782611d77565b6118318185611d8f565b935061183c83611d67565b8060005b8381101561186d57815161185488826117b9565b975061185f83611d82565b925050600181019050611840565b5085935050505092915050565b6000611887602483611dab565b915061189282611ea3565b604082019050919050565b60006118aa601483611dab565b91506118b582611ef2565b602082019050919050565b60006118cd602683611dab565b91506118d882611f1b565b604082019050919050565b60006118f0602083611dab565b91506118fb82611f6a565b602082019050919050565b6000611913602883611dab565b915061191e82611f93565b604082019050919050565b6000611936602d83611dab565b915061194182611fe2565b604082019050919050565b6000611959602383611dab565b915061196482612031565b604082019050919050565b600061197c600083611da0565b915061198782612080565b600082019050919050565b600061199f602b83611dab565b91506119aa82612083565b604082019050919050565b60006119c2601e83611dab565b91506119cd826120d2565b602082019050919050565b60006119e5601383611dab565b91506119f0826120fb565b602082019050919050565b6000611a08601f83611dab565b9150611a1382612124565b602082019050919050565b6000611a2b601c83611dab565b9150611a368261214d565b602082019050919050565b60a082016000820151611a576000850182611aa9565b506020820151611a6a60208501826117fe565b506040820151611a7d6040850182611aa9565b506060820151611a9060608501826117e0565b506080820151611aa36080850182611aa9565b50505050565b611ab281611e34565b82525050565b611ac181611e34565b82525050565b6000611ad28261196f565b9150819050919050565b6000602082019050611af1600083018461180d565b92915050565b6000606082019050611b0c60008301866117d1565b611b19602083018561180d565b611b266040830184611ab8565b949350505050565b6000604082019050611b43600083018561180d565b611b506020830184611ab8565b9392505050565b60006020820190508181036000830152611b71818461181c565b905092915050565b60006020820190508181036000830152611b928161187a565b9050919050565b60006020820190508181036000830152611bb28161189d565b9050919050565b60006020820190508181036000830152611bd2816118c0565b9050919050565b60006020820190508181036000830152611bf2816118e3565b9050919050565b60006020820190508181036000830152611c1281611906565b9050919050565b60006020820190508181036000830152611c3281611929565b9050919050565b60006020820190508181036000830152611c528161194c565b9050919050565b60006020820190508181036000830152611c7281611992565b9050919050565b60006020820190508181036000830152611c92816119b5565b9050919050565b60006020820190508181036000830152611cb2816119d8565b9050919050565b60006020820190508181036000830152611cd2816119fb565b9050919050565b60006020820190508181036000830152611cf281611a1e565b9050919050565b6000602082019050611d0e6000830184611ab8565b92915050565b600060a082019050611d296000830188611ab8565b611d36602083018761180d565b611d436040830186611ab8565b611d5060608301856117ef565b611d5d6080830184611ab8565b9695505050505050565b6000819050602082019050919050565b600081519050919050565b6000602082019050919050565b600082825260208201905092915050565b600081905092915050565b600082825260208201905092915050565b6000611dc782611e34565b9150611dd283611e34565b925082821015611de557611de4611e74565b5b828203905092915050565b6000611dfb82611e14565b9050919050565b6000611e0d82611e14565b9050919050565b600073ffffffffffffffffffffffffffffffffffffffff82169050919050565b6000819050919050565b6000611e4982611e50565b9050919050565b6000611e5b82611e62565b9050919050565b6000611e6d82611e14565b9050919050565b7f4e487b7100000000000000000000000000000000000000000000000000000000600052601160045260246000fd5b7f6f6e6c7920746865206f776e6572206f66206974656d2063616e2072656d6f7660008201527f6520697400000000000000000000000000000000000000000000000000000000602082015250565b7f6974656d206964206973206e6f742076616c6964000000000000000000000000600082015250565b7f4f776e61626c653a206e6577206f776e657220697320746865207a65726f206160008201527f6464726573730000000000000000000000000000000000000000000000000000602082015250565b7f4f776e61626c653a2063616c6c6572206973206e6f7420746865206f776e6572600082015250565b7f6d73672e76616c7565206d75737420626520657175616c20746f206c6973746960008201527f6e67207072696365000000000000000000000000000000000000000000000000602082015250565b7f4661696c656420746f2073656e6420457468657220746f20746865206f776e6560008201527f72206f6620636f6e747261637400000000000000000000000000000000000000602082015250565b7f6f6e6c7920746865206f776e6572206f6620746f6b656e2063616e2073656c6c60008201527f2069740000000000000000000000000000000000000000000000000000000000602082015250565b50565b7f6d73672e76616c7565206d75737420626520657175616c20746f206d61726b6560008201527f744974656d207072696365000000000000000000000000000000000000000000602082015250565b7f4661696c656420746f2073656e6420457468657220746f2073656c6c65720000600082015250565b7f6974656d20616c72656164792065786973747300000000000000000000000000600082015250565b7f5265656e7472616e637947756172643a207265656e7472616e742063616c6c00600082015250565b7f5072696365206d757374206265206174206c6561737420312077656900000000600082015250565b61217f81611df0565b811461218a57600080fd5b50565b61219681611e34565b81146121a157600080fd5b5056fea26469706673582212207352a87c700f568f68384e9ae13e368816e8d24542bc6fba07ebd54cd16d8ab164736f6c63430008040033",
  "linkReferences": {},
  "deployedLinkReferences": {}
}