{
  "_format": "hh-sol-artifact-1",
  "contractName": "NFTMarketPlace",
  "sourceName": "contracts/NFTMarketPlace.sol",
  "abi": [
    {
      "inputs": [
        {
          "internalType": "uint256",
          "name": "_listingPrice",
          "type": "uint256"
        }
      ],
      "stateMutability": "nonpayable",
      "type": "constructor"
    },
    {
      "anonymous": false,
      "inputs": [
        {
          "indexed": true,
          "internalType": "uint256",
          "name": "itemId",
          "type": "uint256"
        },
        {
          "indexed": true,
          "internalType": "address",
          "name": "nftContract",
          "type": "address"
        },
        {
          "indexed": true,
          "internalType": "uint256",
          "name": "tokenId",
          "type": "uint256"
        },
        {
          "indexed": false,
          "internalType": "address",
          "name": "seller",
          "type": "address"
        },
        {
          "indexed": false,
          "internalType": "uint256",
          "name": "price",
          "type": "uint256"
        }
      ],
      "name": "MarketItemCreated",
      "type": "event"
    },
    {
      "anonymous": false,
      "inputs": [
        {
          "indexed": true,
          "internalType": "address",
          "name": "previousOwner",
          "type": "address"
        },
        {
          "indexed": true,
          "internalType": "address",
          "name": "newOwner",
          "type": "address"
        }
      ],
      "name": "OwnershipTransferred",
      "type": "event"
    },
    {
      "inputs": [
        {
          "internalType": "uint256",
          "name": "itemId",
          "type": "uint256"
        }
      ],
      "name": "buyMarketItem",
      "outputs": [],
      "stateMutability": "payable",
      "type": "function"
    },
    {
      "inputs": [
        {
          "internalType": "address",
          "name": "nftContract",
          "type": "address"
        },
        {
          "internalType": "uint256",
          "name": "tokenId",
          "type": "uint256"
        },
        {
          "internalType": "uint256",
          "name": "price",
          "type": "uint256"
        }
      ],
      "name": "createMarketItem",
      "outputs": [],
      "stateMutability": "payable",
      "type": "function"
    },
    {
      "inputs": [],
      "name": "getMarketItems",
      "outputs": [
        {
          "components": [
            {
              "internalType": "uint256",
              "name": "itemId",
              "type": "uint256"
            },
            {
              "internalType": "address",
              "name": "nftContract",
              "type": "address"
            },
            {
              "internalType": "uint256",
              "name": "tokenId",
              "type": "uint256"
            },
            {
              "internalType": "address payable",
              "name": "seller",
              "type": "address"
            },
            {
              "internalType": "uint256",
              "name": "price",
              "type": "uint256"
            }
          ],
          "internalType": "struct NFTMarketPlace.MarketItem[]",
          "name": "",
          "type": "tuple[]"
        }
      ],
      "stateMutability": "view",
      "type": "function"
    },
    {
      "inputs": [],
      "name": "listingPrice",
      "outputs": [
        {
          "internalType": "uint256",
          "name": "",
          "type": "uint256"
        }
      ],
      "stateMutability": "view",
      "type": "function"
    },
    {
      "inputs": [
        {
          "internalType": "uint256",
          "name": "",
          "type": "uint256"
        }
      ],
      "name": "marketItems",
      "outputs": [
        {
          "internalType": "uint256",
          "name": "itemId",
          "type": "uint256"
        },
        {
          "internalType": "address",
          "name": "nftContract",
          "type": "address"
        },
        {
          "internalType": "uint256",
          "name": "tokenId",
          "type": "uint256"
        },
        {
          "internalType": "address payable",
          "name": "seller",
          "type": "address"
        },
        {
          "internalType": "uint256",
          "name": "price",
          "type": "uint256"
        }
      ],
      "stateMutability": "view",
      "type": "function"
    },
    {
      "inputs": [],
      "name": "owner",
      "outputs": [
        {
          "internalType": "address",
          "name": "",
          "type": "address"
        }
      ],
      "stateMutability": "view",
      "type": "function"
    },
    {
      "inputs": [
        {
          "internalType": "uint256",
          "name": "itemId",
          "type": "uint256"
        }
      ],
      "name": "removeMarketItem",
      "outputs": [],
      "stateMutability": "nonpayable",
      "type": "function"
    },
    {
      "inputs": [],
      "name": "renounceOwnership",
      "outputs": [],
      "stateMutability": "nonpayable",
      "type": "function"
    },
    {
      "inputs": [
        {
          "internalType": "address",
          "name": "newOwner",
          "type": "address"
        }
      ],
      "name": "transferOwnership",
      "outputs": [],
      "stateMutability": "nonpayable",
      "type": "function"
    }
  ],
  "bytecode": "0x60806040523480156200001157600080fd5b506040516200231b3803806200231b833981810160405281019062000037919062000152565b60016000819055506200005f620000536200006d60201b60201c565b6200007560201b60201c565b8060038190555050620001a2565b600033905090565b6000600160009054906101000a900473ffffffffffffffffffffffffffffffffffffffff16905081600160006101000a81548173ffffffffffffffffffffffffffffffffffffffff021916908373ffffffffffffffffffffffffffffffffffffffff1602179055508173ffffffffffffffffffffffffffffffffffffffff168173ffffffffffffffffffffffffffffffffffffffff167f8be0079c531659141344cd1fd0a4f28419497f9722a3daafe3b4186f6b6457e060405160405180910390a35050565b6000815190506200014c8162000188565b92915050565b6000602082840312156200016557600080fd5b600062000175848285016200013b565b91505092915050565b6000819050919050565b62000193816200017e565b81146200019f57600080fd5b50565b61216980620001b26000396000f3fe6080604052600436106100865760003560e01c8063715018a611610059578063715018a61461012f5780637fb770cb146101465780638da5cb5b1461016f578063c78f19f91461019a578063f2fde38b146101c557610086565b806329aa3a421461008b578063351901c3146100b657806351f28e14146100d257806358eb2df514610113575b600080fd5b34801561009757600080fd5b506100a06101ee565b6040516100ad9190611ae6565b60405180910390f35b6100d060048036038101906100cb919061171f565b610317565b005b3480156100de57600080fd5b506100f960048036038101906100f4919061171f565b610686565b60405161010a959493929190611ca3565b60405180910390f35b61012d600480360381019061012891906116d0565b61070c565b005b34801561013b57600080fd5b50610144610ca5565b005b34801561015257600080fd5b5061016d6004803603810190610168919061171f565b610d2d565b005b34801561017b57600080fd5b50610184610f46565b6040516101919190611a6b565b60405180910390f35b3480156101a657600080fd5b506101af610f70565b6040516101bc9190611c88565b60405180910390f35b3480156101d157600080fd5b506101ec60048036038101906101e7919061167e565b610f76565b005b60606004805480602002602001604051908101604052809291908181526020016000905b8282101561030e57838290600052602060002090600502016040518060a0016040529081600082015481526020016001820160009054906101000a900473ffffffffffffffffffffffffffffffffffffffff1673ffffffffffffffffffffffffffffffffffffffff1673ffffffffffffffffffffffffffffffffffffffff168152602001600282015481526020016003820160009054906101000a900473ffffffffffffffffffffffffffffffffffffffff1673ffffffffffffffffffffffffffffffffffffffff1673ffffffffffffffffffffffffffffffffffffffff16815260200160048201548152505081526020019060010190610212565b50505050905090565b6002600054141561035d576040517f08c379a000000000000000000000000000000000000000000000000000000000815260040161035490611c48565b60405180910390fd5b60026000819055506006600082815260200190815260200160002060009054906101000a900460ff166103c5576040517f08c379a00000000000000000000000000000000000000000000000000000000081526004016103bc90611b28565b60405180910390fd5b600060056000838152602001908152602001600020549050600060048281548110610419577f4e487b7100000000000000000000000000000000000000000000000000000000600052603260045260246000fd5b90600052602060002090600502016040518060a0016040529081600082015481526020016001820160009054906101000a900473ffffffffffffffffffffffffffffffffffffffff1673ffffffffffffffffffffffffffffffffffffffff1673ffffffffffffffffffffffffffffffffffffffff168152602001600282015481526020016003820160009054906101000a900473ffffffffffffffffffffffffffffffffffffffff1673ffffffffffffffffffffffffffffffffffffffff1673ffffffffffffffffffffffffffffffffffffffff168152602001600482015481525050905080608001513414610544576040517f08c379a000000000000000000000000000000000000000000000000000000000815260040161053b90611be8565b60405180910390fd5b6000816060015173ffffffffffffffffffffffffffffffffffffffff163460405161056e90611a56565b60006040518083038185875af1925050503d80600081146105ab576040519150601f19603f3d011682016040523d82523d6000602084013e6105b0565b606091505b50509050806105f4576040517f08c379a00000000000000000000000000000000000000000000000000000000081526004016105eb90611c08565b60405180910390fd5b816020015173ffffffffffffffffffffffffffffffffffffffff166323b872dd83606001513385604001516040518463ffffffff1660e01b815260040161063d93929190611a86565b600060405180830381600087803b15801561065757600080fd5b505af115801561066b573d6000803e3d6000fd5b505050506106788461106e565b505050600160008190555050565b6004818154811061069657600080fd5b90600052602060002090600502016000915090508060000154908060010160009054906101000a900473ffffffffffffffffffffffffffffffffffffffff16908060020154908060030160009054906101000a900473ffffffffffffffffffffffffffffffffffffffff16908060040154905085565b60026000541415610752576040517f08c379a000000000000000000000000000000000000000000000000000000000815260040161074990611c48565b60405180910390fd5b600260008190555060001515600760008573ffffffffffffffffffffffffffffffffffffffff1673ffffffffffffffffffffffffffffffffffffffff168152602001908152602001600020600084815260200190815260200160002060009054906101000a900460ff161515146107fe576040517f08c379a00000000000000000000000000000000000000000000000000000000081526004016107f590611c28565b60405180910390fd5b3373ffffffffffffffffffffffffffffffffffffffff168373ffffffffffffffffffffffffffffffffffffffff16636352211e846040518263ffffffff1660e01b815260040161084e9190611c88565b60206040518083038186803b15801561086657600080fd5b505afa15801561087a573d6000803e3d6000fd5b505050506040513d601f19601f8201168201806040525081019061089e91906116a7565b73ffffffffffffffffffffffffffffffffffffffff16146108f4576040517f08c379a00000000000000000000000000000000000000000000000000000000081526004016108eb90611bc8565b60405180910390fd5b60008111610937576040517f08c379a000000000000000000000000000000000000000000000000000000000815260040161092e90611c68565b60405180910390fd5b600354341461097b576040517f08c379a000000000000000000000000000000000000000000000000000000000815260040161097290611b88565b60405180910390fd5b610985600261154d565b60006109916002611563565b905060006040518060a001604052808381526020018673ffffffffffffffffffffffffffffffffffffffff1681526020018581526020013373ffffffffffffffffffffffffffffffffffffffff16815260200184815250905060048190806001815401808255809150506001900390600052602060002090600502016000909190919091506000820151816000015560208201518160010160006101000a81548173ffffffffffffffffffffffffffffffffffffffff021916908373ffffffffffffffffffffffffffffffffffffffff1602179055506040820151816002015560608201518160030160006101000a81548173ffffffffffffffffffffffffffffffffffffffff021916908373ffffffffffffffffffffffffffffffffffffffff1602179055506080820151816004015550506001600480549050610ad69190611d4b565b600560008481526020019081526020016000208190555060016006600084815260200190815260200160002060006101000a81548160ff0219169083151502179055506001600760008773ffffffffffffffffffffffffffffffffffffffff1673ffffffffffffffffffffffffffffffffffffffff168152602001908152602001600020600086815260200190815260200160002060006101000a81548160ff02191690831515021790555060006003541115610c44576000610b97610f46565b73ffffffffffffffffffffffffffffffffffffffff16600354604051610bbc90611a56565b60006040518083038185875af1925050503d8060008114610bf9576040519150601f19603f3d011682016040523d82523d6000602084013e610bfe565b606091505b5050905080610c42576040517f08c379a0000000000000000000000000000000000000000000000000000000008152600401610c3990611ba8565b60405180910390fd5b505b838573ffffffffffffffffffffffffffffffffffffffff16837f6c768f237d15b0eedb46b2f49918dc5109839c2d232c382d377c40fabeeec92d3387604051610c8e929190611abd565b60405180910390a450506001600081905550505050565b610cad611571565b73ffffffffffffffffffffffffffffffffffffffff16610ccb610f46565b73ffffffffffffffffffffffffffffffffffffffff1614610d21576040517f08c379a0000000000000000000000000000000000000000000000000000000008152600401610d1890611b68565b60405180910390fd5b610d2b6000611579565b565b6006600082815260200190815260200160002060009054906101000a900460ff16610d8d576040517f08c379a0000000000000000000000000000000000000000000000000000000008152600401610d8490611b28565b60405180910390fd5b600060056000838152602001908152602001600020549050600060048281548110610de1577f4e487b7100000000000000000000000000000000000000000000000000000000600052603260045260246000fd5b90600052602060002090600502016040518060a0016040529081600082015481526020016001820160009054906101000a900473ffffffffffffffffffffffffffffffffffffffff1673ffffffffffffffffffffffffffffffffffffffff1673ffffffffffffffffffffffffffffffffffffffff168152602001600282015481526020016003820160009054906101000a900473ffffffffffffffffffffffffffffffffffffffff1673ffffffffffffffffffffffffffffffffffffffff1673ffffffffffffffffffffffffffffffffffffffff16815260200160048201548152505090503373ffffffffffffffffffffffffffffffffffffffff16816060015173ffffffffffffffffffffffffffffffffffffffff1614610f38576040517f08c379a0000000000000000000000000000000000000000000000000000000008152600401610f2f90611b08565b60405180910390fd5b610f418361106e565b505050565b6000600160009054906101000a900473ffffffffffffffffffffffffffffffffffffffff16905090565b60035481565b610f7e611571565b73ffffffffffffffffffffffffffffffffffffffff16610f9c610f46565b73ffffffffffffffffffffffffffffffffffffffff1614610ff2576040517f08c379a0000000000000000000000000000000000000000000000000000000008152600401610fe990611b68565b60405180910390fd5b600073ffffffffffffffffffffffffffffffffffffffff168173ffffffffffffffffffffffffffffffffffffffff161415611062576040517f08c379a000000000000000000000000000000000000000000000000000000000815260040161105990611b48565b60405180910390fd5b61106b81611579565b50565b600060056000838152602001908152602001600020549050600060048054905090506000600483815481106110cc577f4e487b7100000000000000000000000000000000000000000000000000000000600052603260045260246000fd5b90600052602060002090600502016040518060a0016040529081600082015481526020016001820160009054906101000a900473ffffffffffffffffffffffffffffffffffffffff1673ffffffffffffffffffffffffffffffffffffffff1673ffffffffffffffffffffffffffffffffffffffff168152602001600282015481526020016003820160009054906101000a900473ffffffffffffffffffffffffffffffffffffffff1673ffffffffffffffffffffffffffffffffffffffff1673ffffffffffffffffffffffffffffffffffffffff1681526020016004820154815250509050600060046001846111c29190611d4b565b815481106111f9577f4e487b7100000000000000000000000000000000000000000000000000000000600052603260045260246000fd5b90600052602060002090600502016040518060a0016040529081600082015481526020016001820160009054906101000a900473ffffffffffffffffffffffffffffffffffffffff1673ffffffffffffffffffffffffffffffffffffffff1673ffffffffffffffffffffffffffffffffffffffff168152602001600282015481526020016003820160009054906101000a900473ffffffffffffffffffffffffffffffffffffffff1673ffffffffffffffffffffffffffffffffffffffff1673ffffffffffffffffffffffffffffffffffffffff16815260200160048201548152505090508060048581548110611319577f4e487b7100000000000000000000000000000000000000000000000000000000600052603260045260246000fd5b90600052602060002090600502016000820151816000015560208201518160010160006101000a81548173ffffffffffffffffffffffffffffffffffffffff021916908373ffffffffffffffffffffffffffffffffffffffff1602179055506040820151816002015560608201518160030160006101000a81548173ffffffffffffffffffffffffffffffffffffffff021916908373ffffffffffffffffffffffffffffffffffffffff160217905550608082015181600401559050508360056000836000015181526020019081526020016000208190555060006006600087815260200190815260200160002060006101000a81548160ff021916908315150217905550600060076000846020015173ffffffffffffffffffffffffffffffffffffffff1673ffffffffffffffffffffffffffffffffffffffff16815260200190815260200160002060008460400151815260200190815260200160002060006101000a81548160ff02191690831515021790555060048054806114c7577f4e487b7100000000000000000000000000000000000000000000000000000000600052603160045260246000fd5b60019003818190600052602060002090600502016000808201600090556001820160006101000a81549073ffffffffffffffffffffffffffffffffffffffff021916905560028201600090556003820160006101000a81549073ffffffffffffffffffffffffffffffffffffffff02191690556004820160009055505090555050505050565b6001816000016000828254019250508190555050565b600081600001549050919050565b600033905090565b6000600160009054906101000a900473ffffffffffffffffffffffffffffffffffffffff16905081600160006101000a81548173ffffffffffffffffffffffffffffffffffffffff021916908373ffffffffffffffffffffffffffffffffffffffff1602179055508173ffffffffffffffffffffffffffffffffffffffff168173ffffffffffffffffffffffffffffffffffffffff167f8be0079c531659141344cd1fd0a4f28419497f9722a3daafe3b4186f6b6457e060405160405180910390a35050565b60008135905061164e81612105565b92915050565b60008151905061166381612105565b92915050565b6000813590506116788161211c565b92915050565b60006020828403121561169057600080fd5b600061169e8482850161163f565b91505092915050565b6000602082840312156116b957600080fd5b60006116c784828501611654565b91505092915050565b6000806000606084860312156116e557600080fd5b60006116f38682870161163f565b935050602061170486828701611669565b925050604061171586828701611669565b9150509250925092565b60006020828403121561173157600080fd5b600061173f84828501611669565b91505092915050565b600061175483836119d0565b60a08301905092915050565b61176981611dcd565b82525050565b61177881611d91565b82525050565b61178781611d91565b82525050565b61179681611d7f565b82525050565b6117a581611d7f565b82525050565b60006117b682611d06565b6117c08185611d1e565b93506117cb83611cf6565b8060005b838110156117fc5781516117e38882611748565b97506117ee83611d11565b9250506001810190506117cf565b5085935050505092915050565b6000611816602483611d3a565b915061182182611e32565b604082019050919050565b6000611839601483611d3a565b915061184482611e81565b602082019050919050565b600061185c602683611d3a565b915061186782611eaa565b604082019050919050565b600061187f602083611d3a565b915061188a82611ef9565b602082019050919050565b60006118a2602883611d3a565b91506118ad82611f22565b604082019050919050565b60006118c5602d83611d3a565b91506118d082611f71565b604082019050919050565b60006118e8602383611d3a565b91506118f382611fc0565b604082019050919050565b600061190b600083611d2f565b91506119168261200f565b600082019050919050565b600061192e602b83611d3a565b915061193982612012565b604082019050919050565b6000611951601e83611d3a565b915061195c82612061565b602082019050919050565b6000611974601383611d3a565b915061197f8261208a565b602082019050919050565b6000611997601f83611d3a565b91506119a2826120b3565b602082019050919050565b60006119ba601c83611d3a565b91506119c5826120dc565b602082019050919050565b60a0820160008201516119e66000850182611a38565b5060208201516119f9602085018261178d565b506040820151611a0c6040850182611a38565b506060820151611a1f606085018261176f565b506080820151611a326080850182611a38565b50505050565b611a4181611dc3565b82525050565b611a5081611dc3565b82525050565b6000611a61826118fe565b9150819050919050565b6000602082019050611a80600083018461179c565b92915050565b6000606082019050611a9b6000830186611760565b611aa8602083018561179c565b611ab56040830184611a47565b949350505050565b6000604082019050611ad2600083018561179c565b611adf6020830184611a47565b9392505050565b60006020820190508181036000830152611b0081846117ab565b905092915050565b60006020820190508181036000830152611b2181611809565b9050919050565b60006020820190508181036000830152611b418161182c565b9050919050565b60006020820190508181036000830152611b618161184f565b9050919050565b60006020820190508181036000830152611b8181611872565b9050919050565b60006020820190508181036000830152611ba181611895565b9050919050565b60006020820190508181036000830152611bc1816118b8565b9050919050565b60006020820190508181036000830152611be1816118db565b9050919050565b60006020820190508181036000830152611c0181611921565b9050919050565b60006020820190508181036000830152611c2181611944565b9050919050565b60006020820190508181036000830152611c4181611967565b9050919050565b60006020820190508181036000830152611c618161198a565b9050919050565b60006020820190508181036000830152611c81816119ad565b9050919050565b6000602082019050611c9d6000830184611a47565b92915050565b600060a082019050611cb86000830188611a47565b611cc5602083018761179c565b611cd26040830186611a47565b611cdf606083018561177e565b611cec6080830184611a47565b9695505050505050565b6000819050602082019050919050565b600081519050919050565b6000602082019050919050565b600082825260208201905092915050565b600081905092915050565b600082825260208201905092915050565b6000611d5682611dc3565b9150611d6183611dc3565b925082821015611d7457611d73611e03565b5b828203905092915050565b6000611d8a82611da3565b9050919050565b6000611d9c82611da3565b9050919050565b600073ffffffffffffffffffffffffffffffffffffffff82169050919050565b6000819050919050565b6000611dd882611ddf565b9050919050565b6000611dea82611df1565b9050919050565b6000611dfc82611da3565b9050919050565b7f4e487b7100000000000000000000000000000000000000000000000000000000600052601160045260246000fd5b7f6f6e6c7920746865206f776e6572206f66206974656d2063616e2072656d6f7660008201527f6520697400000000000000000000000000000000000000000000000000000000602082015250565b7f6974656d206964206973206e6f742076616c6964000000000000000000000000600082015250565b7f4f776e61626c653a206e6577206f776e657220697320746865207a65726f206160008201527f6464726573730000000000000000000000000000000000000000000000000000602082015250565b7f4f776e61626c653a2063616c6c6572206973206e6f7420746865206f776e6572600082015250565b7f6d73672e76616c7565206d75737420626520657175616c20746f206c6973746960008201527f6e67207072696365000000000000000000000000000000000000000000000000602082015250565b7f4661696c656420746f2073656e6420457468657220746f20746865206f776e6560008201527f72206f6620636f6e747261637400000000000000000000000000000000000000602082015250565b7f6f6e6c7920746865206f776e6572206f6620746f6b656e2063616e2073656c6c60008201527f2069740000000000000000000000000000000000000000000000000000000000602082015250565b50565b7f6d73672e76616c7565206d75737420626520657175616c20746f206d61726b6560008201527f744974656d207072696365000000000000000000000000000000000000000000602082015250565b7f4661696c656420746f2073656e6420457468657220746f2073656c6c65720000600082015250565b7f6974656d20616c72656164792065786973747300000000000000000000000000600082015250565b7f5265656e7472616e637947756172643a207265656e7472616e742063616c6c00600082015250565b7f5072696365206d757374206265206174206c6561737420312077656900000000600082015250565b61210e81611d7f565b811461211957600080fd5b50565b61212581611dc3565b811461213057600080fd5b5056fea26469706673582212200d2be73fc744164ac2859d1897e3ff2ed43ea927ba1201b5c6a0e2bf0ae4840864736f6c63430008040033",
  "linkReferences": {},
  "deployedLinkReferences": {}
}